{
  "_format": "hh-sol-artifact-1",
  "contractName": "EventTicket",
  "sourceName": "contracts/EventTicket.sol",
  "abi": [
    {
      "inputs": [],
      "stateMutability": "nonpayable",
      "type": "constructor"
    },
    {
      "inputs": [],
      "name": "ERC721EnumerableForbiddenBatchMint",
      "type": "error"
    },
    {
      "inputs": [
        {
          "internalType": "address",
          "name": "sender",
          "type": "address"
        },
        {
          "internalType": "uint256",
          "name": "tokenId",
          "type": "uint256"
        },
        {
          "internalType": "address",
          "name": "owner",
          "type": "address"
        }
      ],
      "name": "ERC721IncorrectOwner",
      "type": "error"
    },
    {
      "inputs": [
        {
          "internalType": "address",
          "name": "operator",
          "type": "address"
        },
        {
          "internalType": "uint256",
          "name": "tokenId",
          "type": "uint256"
        }
      ],
      "name": "ERC721InsufficientApproval",
      "type": "error"
    },
    {
      "inputs": [
        {
          "internalType": "address",
          "name": "approver",
          "type": "address"
        }
      ],
      "name": "ERC721InvalidApprover",
      "type": "error"
    },
    {
      "inputs": [
        {
          "internalType": "address",
          "name": "operator",
          "type": "address"
        }
      ],
      "name": "ERC721InvalidOperator",
      "type": "error"
    },
    {
      "inputs": [
        {
          "internalType": "address",
          "name": "owner",
          "type": "address"
        }
      ],
      "name": "ERC721InvalidOwner",
      "type": "error"
    },
    {
      "inputs": [
        {
          "internalType": "address",
          "name": "receiver",
          "type": "address"
        }
      ],
      "name": "ERC721InvalidReceiver",
      "type": "error"
    },
    {
      "inputs": [
        {
          "internalType": "address",
          "name": "sender",
          "type": "address"
        }
      ],
      "name": "ERC721InvalidSender",
      "type": "error"
    },
    {
      "inputs": [
        {
          "internalType": "uint256",
          "name": "tokenId",
          "type": "uint256"
        }
      ],
      "name": "ERC721NonexistentToken",
      "type": "error"
    },
    {
      "inputs": [
        {
          "internalType": "address",
          "name": "owner",
          "type": "address"
        },
        {
          "internalType": "uint256",
          "name": "index",
          "type": "uint256"
        }
      ],
      "name": "ERC721OutOfBoundsIndex",
      "type": "error"
    },
    {
      "inputs": [
        {
          "internalType": "address",
          "name": "owner",
          "type": "address"
        }
      ],
      "name": "OwnableInvalidOwner",
      "type": "error"
    },
    {
      "inputs": [
        {
          "internalType": "address",
          "name": "account",
          "type": "address"
        }
      ],
      "name": "OwnableUnauthorizedAccount",
      "type": "error"
    },
    {
      "anonymous": false,
      "inputs": [
        {
          "indexed": true,
          "internalType": "address",
          "name": "owner",
          "type": "address"
        },
        {
          "indexed": true,
          "internalType": "address",
          "name": "approved",
          "type": "address"
        },
        {
          "indexed": true,
          "internalType": "uint256",
          "name": "tokenId",
          "type": "uint256"
        }
      ],
      "name": "Approval",
      "type": "event"
    },
    {
      "anonymous": false,
      "inputs": [
        {
          "indexed": true,
          "internalType": "address",
          "name": "owner",
          "type": "address"
        },
        {
          "indexed": true,
          "internalType": "address",
          "name": "operator",
          "type": "address"
        },
        {
          "indexed": false,
          "internalType": "bool",
          "name": "approved",
          "type": "bool"
        }
      ],
      "name": "ApprovalForAll",
      "type": "event"
    },
    {
      "anonymous": false,
      "inputs": [
        {
          "indexed": true,
          "internalType": "uint256",
          "name": "eventId",
          "type": "uint256"
        },
        {
          "indexed": false,
          "internalType": "string",
          "name": "name",
          "type": "string"
        },
        {
          "indexed": false,
          "internalType": "uint256",
          "name": "date",
          "type": "uint256"
        },
        {
          "indexed": false,
          "internalType": "uint256",
          "name": "price",
          "type": "uint256"
        },
        {
          "indexed": false,
          "internalType": "uint256",
          "name": "maxTickets",
          "type": "uint256"
        },
        {
          "indexed": false,
          "internalType": "address",
          "name": "organizer",
          "type": "address"
        }
      ],
      "name": "EventCreated",
      "type": "event"
    },
    {
      "anonymous": false,
      "inputs": [
        {
          "indexed": true,
          "internalType": "address",
          "name": "previousOwner",
          "type": "address"
        },
        {
          "indexed": true,
          "internalType": "address",
          "name": "newOwner",
          "type": "address"
        }
      ],
      "name": "OwnershipTransferred",
      "type": "event"
    },
    {
      "anonymous": false,
      "inputs": [
        {
          "indexed": true,
          "internalType": "uint256",
          "name": "tokenId",
          "type": "uint256"
        },
        {
          "indexed": true,
          "internalType": "uint256",
          "name": "eventId",
          "type": "uint256"
        },
        {
          "indexed": false,
          "internalType": "address",
          "name": "buyer",
          "type": "address"
        }
      ],
      "name": "TicketMinted",
      "type": "event"
    },
    {
      "anonymous": false,
      "inputs": [
        {
          "indexed": true,
          "internalType": "uint256",
          "name": "tokenId",
          "type": "uint256"
        },
        {
          "indexed": true,
          "internalType": "uint256",
          "name": "eventId",
          "type": "uint256"
        }
      ],
      "name": "TicketUsed",
      "type": "event"
    },
    {
      "anonymous": false,
      "inputs": [
        {
          "indexed": true,
          "internalType": "address",
          "name": "from",
          "type": "address"
        },
        {
          "indexed": true,
          "internalType": "address",
          "name": "to",
          "type": "address"
        },
        {
          "indexed": true,
          "internalType": "uint256",
          "name": "tokenId",
          "type": "uint256"
        }
      ],
      "name": "Transfer",
      "type": "event"
    },
    {
      "anonymous": false,
      "inputs": [
        {
          "indexed": true,
          "internalType": "uint256",
          "name": "eventId",
          "type": "uint256"
        },
        {
          "indexed": false,
          "internalType": "bool",
          "name": "locked",
          "type": "bool"
        }
      ],
      "name": "TransferLockToggled",
      "type": "event"
    },
    {
      "anonymous": false,
      "inputs": [
        {
          "indexed": true,
          "internalType": "uint256",
          "name": "eventId",
          "type": "uint256"
        },
        {
          "indexed": false,
          "internalType": "address",
          "name": "validator",
          "type": "address"
        }
      ],
      "name": "ValidatorAdded",
      "type": "event"
    },
    {
      "anonymous": false,
      "inputs": [
        {
          "indexed": true,
          "internalType": "uint256",
          "name": "eventId",
          "type": "uint256"
        },
        {
          "indexed": false,
          "internalType": "address",
          "name": "validator",
          "type": "address"
        }
      ],
      "name": "ValidatorRemoved",
      "type": "event"
    },
    {
      "inputs": [
        {
          "internalType": "uint256",
          "name": "eventId",
          "type": "uint256"
        },
        {
          "internalType": "address",
          "name": "validator",
          "type": "address"
        }
      ],
      "name": "addValidator",
      "outputs": [],
      "stateMutability": "nonpayable",
      "type": "function"
    },
    {
      "inputs": [
        {
          "internalType": "address",
          "name": "to",
          "type": "address"
        },
        {
          "internalType": "uint256",
          "name": "tokenId",
          "type": "uint256"
        }
      ],
      "name": "approve",
      "outputs": [],
      "stateMutability": "nonpayable",
      "type": "function"
    },
    {
      "inputs": [
        {
          "internalType": "address",
          "name": "owner",
          "type": "address"
        }
      ],
      "name": "balanceOf",
      "outputs": [
        {
          "internalType": "uint256",
          "name": "",
          "type": "uint256"
        }
      ],
      "stateMutability": "view",
      "type": "function"
    },
    {
      "inputs": [
        {
          "internalType": "string",
          "name": "name",
          "type": "string"
        },
        {
          "internalType": "string",
          "name": "description",
          "type": "string"
        },
        {
          "internalType": "uint256",
          "name": "date",
          "type": "uint256"
        },
        {
          "internalType": "uint256",
          "name": "price",
          "type": "uint256"
        },
        {
          "internalType": "uint256",
          "name": "maxTickets",
          "type": "uint256"
        },
        {
          "internalType": "uint256",
          "name": "maxResellPrice",
          "type": "uint256"
        },
        {
          "internalType": "bool",
          "name": "transferLocked",
          "type": "bool"
        }
      ],
      "name": "createEvent",
      "outputs": [
        {
          "internalType": "uint256",
          "name": "",
          "type": "uint256"
        }
      ],
      "stateMutability": "nonpayable",
      "type": "function"
    },
    {
      "inputs": [],
      "name": "eventIdCounter",
      "outputs": [
        {
          "internalType": "uint256",
          "name": "",
          "type": "uint256"
        }
      ],
      "stateMutability": "view",
      "type": "function"
    },
    {
      "inputs": [
        {
          "internalType": "uint256",
          "name": "",
          "type": "uint256"
        },
        {
          "internalType": "address",
          "name": "",
          "type": "address"
        }
      ],
      "name": "eventValidators",
      "outputs": [
        {
          "internalType": "bool",
          "name": "",
          "type": "bool"
        }
      ],
      "stateMutability": "view",
      "type": "function"
    },
    {
      "inputs": [
        {
          "internalType": "uint256",
          "name": "",
          "type": "uint256"
        }
      ],
      "name": "events",
      "outputs": [
        {
          "internalType": "uint256",
          "name": "eventId",
          "type": "uint256"
        },
        {
          "internalType": "string",
          "name": "name",
          "type": "string"
        },
        {
          "internalType": "string",
          "name": "description",
          "type": "string"
        },
        {
          "internalType": "uint256",
          "name": "date",
          "type": "uint256"
        },
        {
          "internalType": "uint256",
          "name": "price",
          "type": "uint256"
        },
        {
          "internalType": "uint256",
          "name": "maxTickets",
          "type": "uint256"
        },
        {
          "internalType": "uint256",
          "name": "ticketsSold",
          "type": "uint256"
        },
        {
          "internalType": "bool",
          "name": "isActive",
          "type": "bool"
        },
        {
          "internalType": "address",
          "name": "organizer",
          "type": "address"
        },
        {
          "internalType": "uint256",
          "name": "maxResellPrice",
          "type": "uint256"
        },
        {
          "internalType": "bool",
          "name": "transferLocked",
          "type": "bool"
        }
      ],
      "stateMutability": "view",
      "type": "function"
    },
    {
      "inputs": [
        {
          "internalType": "uint256",
          "name": "tokenId",
          "type": "uint256"
        }
      ],
      "name": "getApproved",
      "outputs": [
        {
          "internalType": "address",
          "name": "",
          "type": "address"
        }
      ],
      "stateMutability": "view",
      "type": "function"
    },
    {
      "inputs": [
        {
          "internalType": "uint256",
          "name": "eventId",
          "type": "uint256"
        }
      ],
      "name": "getEventTickets",
      "outputs": [
        {
          "internalType": "uint256[]",
          "name": "",
          "type": "uint256[]"
        }
      ],
      "stateMutability": "view",
      "type": "function"
    },
    {
      "inputs": [
        {
          "internalType": "address",
          "name": "owner",
          "type": "address"
        },
        {
          "internalType": "address",
          "name": "operator",
          "type": "address"
        }
      ],
      "name": "isApprovedForAll",
      "outputs": [
        {
          "internalType": "bool",
          "name": "",
          "type": "bool"
        }
      ],
      "stateMutability": "view",
      "type": "function"
    },
    {
      "inputs": [
        {
          "internalType": "uint256",
          "name": "eventId",
          "type": "uint256"
        }
      ],
      "name": "mintTicket",
      "outputs": [
        {
          "internalType": "uint256",
          "name": "",
          "type": "uint256"
        }
      ],
      "stateMutability": "payable",
      "type": "function"
    },
    {
      "inputs": [],
      "name": "name",
      "outputs": [
        {
          "internalType": "string",
          "name": "",
          "type": "string"
        }
      ],
      "stateMutability": "view",
      "type": "function"
    },
    {
      "inputs": [],
      "name": "owner",
      "outputs": [
        {
          "internalType": "address",
          "name": "",
          "type": "address"
        }
      ],
      "stateMutability": "view",
      "type": "function"
    },
    {
      "inputs": [
        {
          "internalType": "uint256",
          "name": "tokenId",
          "type": "uint256"
        }
      ],
      "name": "ownerOf",
      "outputs": [
        {
          "internalType": "address",
          "name": "",
          "type": "address"
        }
      ],
      "stateMutability": "view",
      "type": "function"
    },
    {
      "inputs": [
        {
          "internalType": "uint256",
          "name": "eventId",
          "type": "uint256"
        },
        {
          "internalType": "address",
          "name": "validator",
          "type": "address"
        }
      ],
      "name": "removeValidator",
      "outputs": [],
      "stateMutability": "nonpayable",
      "type": "function"
    },
    {
      "inputs": [],
      "name": "renounceOwnership",
      "outputs": [],
      "stateMutability": "nonpayable",
      "type": "function"
    },
    {
      "inputs": [
        {
          "internalType": "address",
          "name": "from",
          "type": "address"
        },
        {
          "internalType": "address",
          "name": "to",
          "type": "address"
        },
        {
          "internalType": "uint256",
          "name": "tokenId",
          "type": "uint256"
        }
      ],
      "name": "safeTransferFrom",
      "outputs": [],
      "stateMutability": "nonpayable",
      "type": "function"
    },
    {
      "inputs": [
        {
          "internalType": "address",
          "name": "from",
          "type": "address"
        },
        {
          "internalType": "address",
          "name": "to",
          "type": "address"
        },
        {
          "internalType": "uint256",
          "name": "tokenId",
          "type": "uint256"
        },
        {
          "internalType": "bytes",
          "name": "data",
          "type": "bytes"
        }
      ],
      "name": "safeTransferFrom",
      "outputs": [],
      "stateMutability": "nonpayable",
      "type": "function"
    },
    {
      "inputs": [
        {
          "internalType": "address",
          "name": "operator",
          "type": "address"
        },
        {
          "internalType": "bool",
          "name": "approved",
          "type": "bool"
        }
      ],
      "name": "setApprovalForAll",
      "outputs": [],
      "stateMutability": "nonpayable",
      "type": "function"
    },
    {
      "inputs": [
        {
          "internalType": "bytes4",
          "name": "interfaceId",
          "type": "bytes4"
        }
      ],
      "name": "supportsInterface",
      "outputs": [
        {
          "internalType": "bool",
          "name": "",
          "type": "bool"
        }
      ],
      "stateMutability": "view",
      "type": "function"
    },
    {
      "inputs": [],
      "name": "symbol",
      "outputs": [
        {
          "internalType": "string",
          "name": "",
          "type": "string"
        }
      ],
      "stateMutability": "view",
      "type": "function"
    },
    {
      "inputs": [
        {
          "internalType": "uint256",
          "name": "",
          "type": "uint256"
        }
      ],
      "name": "tickets",
      "outputs": [
        {
          "internalType": "uint256",
          "name": "tokenId",
          "type": "uint256"
        },
        {
          "internalType": "uint256",
          "name": "eventId",
          "type": "uint256"
        },
        {
          "internalType": "bool",
          "name": "used",
          "type": "bool"
        },
        {
          "internalType": "uint256",
          "name": "purchasePrice",
          "type": "uint256"
        },
        {
          "internalType": "uint256",
          "name": "purchaseTime",
          "type": "uint256"
        }
      ],
      "stateMutability": "view",
      "type": "function"
    },
    {
      "inputs": [
        {
          "internalType": "uint256",
          "name": "eventId",
          "type": "uint256"
        }
      ],
      "name": "toggleTransferLock",
      "outputs": [],
      "stateMutability": "nonpayable",
      "type": "function"
    },
    {
      "inputs": [
        {
          "internalType": "uint256",
          "name": "index",
          "type": "uint256"
        }
      ],
      "name": "tokenByIndex",
      "outputs": [
        {
          "internalType": "uint256",
          "name": "",
          "type": "uint256"
        }
      ],
      "stateMutability": "view",
      "type": "function"
    },
    {
      "inputs": [
        {
          "internalType": "address",
          "name": "owner",
          "type": "address"
        },
        {
          "internalType": "uint256",
          "name": "index",
          "type": "uint256"
        }
      ],
      "name": "tokenOfOwnerByIndex",
      "outputs": [
        {
          "internalType": "uint256",
          "name": "",
          "type": "uint256"
        }
      ],
      "stateMutability": "view",
      "type": "function"
    },
    {
      "inputs": [
        {
          "internalType": "uint256",
          "name": "tokenId",
          "type": "uint256"
        }
      ],
      "name": "tokenURI",
      "outputs": [
        {
          "internalType": "string",
          "name": "",
          "type": "string"
        }
      ],
      "stateMutability": "view",
      "type": "function"
    },
    {
      "inputs": [],
      "name": "totalSupply",
      "outputs": [
        {
          "internalType": "uint256",
          "name": "",
          "type": "uint256"
        }
      ],
      "stateMutability": "view",
      "type": "function"
    },
    {
      "inputs": [
        {
          "internalType": "address",
          "name": "from",
          "type": "address"
        },
        {
          "internalType": "address",
          "name": "to",
          "type": "address"
        },
        {
          "internalType": "uint256",
          "name": "tokenId",
          "type": "uint256"
        }
      ],
      "name": "transferFrom",
      "outputs": [],
      "stateMutability": "nonpayable",
      "type": "function"
    },
    {
      "inputs": [
        {
          "internalType": "address",
          "name": "newOwner",
          "type": "address"
        }
      ],
      "name": "transferOwnership",
      "outputs": [],
      "stateMutability": "nonpayable",
      "type": "function"
    },
    {
      "inputs": [
        {
          "internalType": "uint256",
          "name": "tokenId",
          "type": "uint256"
        }
      ],
      "name": "useTicket",
      "outputs": [],
      "stateMutability": "nonpayable",
      "type": "function"
    },
    {
      "inputs": [
        {
          "internalType": "uint256",
          "name": "tokenId",
          "type": "uint256"
        },
        {
          "internalType": "address",
          "name": "owner",
          "type": "address"
        }
      ],
      "name": "verifyTicket",
      "outputs": [
        {
          "internalType": "bool",
          "name": "",
          "type": "bool"
        }
      ],
      "stateMutability": "view",
      "type": "function"
    }
  ],
  "bytecode": "0x60806040523480156200001157600080fd5b50336040518060400160405280600b81526020017f4576656e745469636b65740000000000000000000000000000000000000000008152506040518060400160405280600481526020017f4554495800000000000000000000000000000000000000000000000000000000815250816000908162000090919062000472565b508060019081620000a2919062000472565b505050600073ffffffffffffffffffffffffffffffffffffffff168173ffffffffffffffffffffffffffffffffffffffff16036200011a5760006040517f1e4fbdf70000000000000000000000000000000000000000000000000000000081526004016200011191906200059e565b60405180910390fd5b6200012b816200013260201b60201c565b50620005bb565b6000600a60009054906101000a900473ffffffffffffffffffffffffffffffffffffffff16905081600a60006101000a81548173ffffffffffffffffffffffffffffffffffffffff021916908373ffffffffffffffffffffffffffffffffffffffff1602179055508173ffffffffffffffffffffffffffffffffffffffff168173ffffffffffffffffffffffffffffffffffffffff167f8be0079c531659141344cd1fd0a4f28419497f9722a3daafe3b4186f6b6457e060405160405180910390a35050565b600081519050919050565b7f4e487b7100000000000000000000000000000000000000000000000000000000600052604160045260246000fd5b7f4e487b7100000000000000000000000000000000000000000000000000000000600052602260045260246000fd5b600060028204905060018216806200027a57607f821691505b60208210810362000290576200028f62000232565b5b50919050565b60008190508160005260206000209050919050565b60006020601f8301049050919050565b600082821b905092915050565b600060088302620002fa7fffffffffffffffffffffffffffffffffffffffffffffffffffffffffffffffff82620002bb565b620003068683620002bb565b95508019841693508086168417925050509392505050565b6000819050919050565b6000819050919050565b6000620003536200034d62000347846200031e565b62000328565b6200031e565b9050919050565b6000819050919050565b6200036f8362000332565b620003876200037e826200035a565b848454620002c8565b825550505050565b600090565b6200039e6200038f565b620003ab81848462000364565b505050565b5b81811015620003d357620003c760008262000394565b600181019050620003b1565b5050565b601f8211156200042257620003ec8162000296565b620003f784620002ab565b8101602085101562000407578190505b6200041f6200041685620002ab565b830182620003b0565b50505b505050565b600082821c905092915050565b6000620004476000198460080262000427565b1980831691505092915050565b600062000462838362000434565b9150826002028217905092915050565b6200047d82620001f8565b67ffffffffffffffff81111562000499576200049862000203565b5b620004a5825462000261565b620004b2828285620003d7565b600060209050601f831160018114620004ea5760008415620004d5578287015190505b620004e1858262000454565b86555062000551565b601f198416620004fa8662000296565b60005b828110156200052457848901518255600182019150602085019450602081019050620004fd565b8683101562000544578489015162000540601f89168262000434565b8355505b6001600288020188555050505b505050505050565b600073ffffffffffffffffffffffffffffffffffffffff82169050919050565b6000620005868262000559565b9050919050565b620005988162000579565b82525050565b6000602082019050620005b560008301846200058d565b92915050565b614b5380620005cb6000396000f3fe6080604052600436106101d85760003560e01c80636352211e11610102578063b88d4fde11610095578063e01a0ebe11610064578063e01a0ebe1461072b578063e985e9c514610756578063f2fde38b14610793578063f5851a8d146107bc576101d8565b8063b88d4fde1461064b578063c2acd5e214610674578063c87b56dd146106b1578063ca261ce1146106ee576101d8565b80638da5cb5b116100d15780638da5cb5b146105a357806395d89b41146105ce57806399822054146105f9578063a22cb46514610622576101d8565b80636352211e146104e95780636a0cd1f51461052657806370a082311461054f578063715018a61461058c576101d8565b8063256d52f61161017a57806342842e0e1161014957806342842e0e146104195780634b561753146104425780634f6ccce71461046b57806350b44712146104a8576101d8565b8063256d52f61461034657806326606448146103765780632f745c591461039f57806334595cb5146103dc576101d8565b8063095ea7b3116101b6578063095ea7b3146102825780630b791430146102ab57806318160ddd146102f257806323b872dd1461031d576101d8565b806301ffc9a7146101dd57806306fdde031461021a578063081812fc14610245575b600080fd5b3480156101e957600080fd5b5061020460048036038101906101ff91906134b7565b6107f9565b60405161021191906134ff565b60405180910390f35b34801561022657600080fd5b5061022f610873565b60405161023c91906135aa565b60405180910390f35b34801561025157600080fd5b5061026c60048036038101906102679190613602565b610905565b6040516102799190613670565b60405180910390f35b34801561028e57600080fd5b506102a960048036038101906102a491906136b7565b610921565b005b3480156102b757600080fd5b506102d260048036038101906102cd9190613602565b610937565b6040516102e99b9a99989796959493929190613706565b60405180910390f35b3480156102fe57600080fd5b50610307610adb565b60405161031491906137bf565b60405180910390f35b34801561032957600080fd5b50610344600480360381019061033f91906137da565b610ae8565b005b610360600480360381019061035b9190613602565b610bea565b60405161036d91906137bf565b60405180910390f35b34801561038257600080fd5b5061039d60048036038101906103989190613602565b610f44565b005b3480156103ab57600080fd5b506103c660048036038101906103c191906136b7565b6110bd565b6040516103d391906137bf565b60405180910390f35b3480156103e857600080fd5b5061040360048036038101906103fe919061398e565b611166565b60405161041091906137bf565b60405180910390f35b34801561042557600080fd5b50610440600480360381019061043b91906137da565b611477565b005b34801561044e57600080fd5b5061046960048036038101906104649190613a68565b611497565b005b34801561047757600080fd5b50610492600480360381019061048d9190613602565b61164f565b60405161049f91906137bf565b60405180910390f35b3480156104b457600080fd5b506104cf60048036038101906104ca9190613602565b6116c5565b6040516104e0959493929190613aa8565b60405180910390f35b3480156104f557600080fd5b50610510600480360381019061050b9190613602565b611708565b60405161051d9190613670565b60405180910390f35b34801561053257600080fd5b5061054d60048036038101906105489190613a68565b61171a565b005b34801561055b57600080fd5b5061057660048036038101906105719190613afb565b611907565b60405161058391906137bf565b60405180910390f35b34801561059857600080fd5b506105a16119c1565b005b3480156105af57600080fd5b506105b86119d5565b6040516105c59190613670565b60405180910390f35b3480156105da57600080fd5b506105e36119ff565b6040516105f091906135aa565b60405180910390f35b34801561060557600080fd5b50610620600480360381019061061b9190613602565b611a91565b005b34801561062e57600080fd5b5061064960048036038101906106449190613b28565b611be5565b005b34801561065757600080fd5b50610672600480360381019061066d9190613c09565b611bfb565b005b34801561068057600080fd5b5061069b60048036038101906106969190613a68565b611c20565b6040516106a891906134ff565b60405180910390f35b3480156106bd57600080fd5b506106d860048036038101906106d39190613602565b611c4f565b6040516106e591906135aa565b60405180910390f35b3480156106fa57600080fd5b5061071560048036038101906107109190613602565b611cb8565b6040516107229190613d4a565b60405180910390f35b34801561073757600080fd5b50610740611d23565b60405161074d91906137bf565b60405180910390f35b34801561076257600080fd5b5061077d60048036038101906107789190613d6c565b611d2d565b60405161078a91906134ff565b60405180910390f35b34801561079f57600080fd5b506107ba60048036038101906107b59190613afb565b611dc1565b005b3480156107c857600080fd5b506107e360048036038101906107de9190613a68565b611e47565b6040516107f091906134ff565b60405180910390f35b60007f780e9d63000000000000000000000000000000000000000000000000000000007bffffffffffffffffffffffffffffffffffffffffffffffffffffffff1916827bffffffffffffffffffffffffffffffffffffffffffffffffffffffff1916148061086c575061086b82611f3b565b5b9050919050565b60606000805461088290613ddb565b80601f01602080910402602001604051908101604052809291908181526020018280546108ae90613ddb565b80156108fb5780601f106108d0576101008083540402835291602001916108fb565b820191906000526020600020905b8154815290600101906020018083116108de57829003601f168201915b5050505050905090565b60006109108261201d565b5061091a826120a5565b9050919050565b610933828261092e6120e2565b6120ea565b5050565b600d60205280600052604060002060009150905080600001549080600101805461096090613ddb565b80601f016020809104026020016040519081016040528092919081815260200182805461098c90613ddb565b80156109d95780601f106109ae576101008083540402835291602001916109d9565b820191906000526020600020905b8154815290600101906020018083116109bc57829003601f168201915b5050505050908060020180546109ee90613ddb565b80601f0160208091040260200160405190810160405280929190818152602001828054610a1a90613ddb565b8015610a675780601f10610a3c57610100808354040283529160200191610a67565b820191906000526020600020905b815481529060010190602001808311610a4a57829003601f168201915b5050505050908060030154908060040154908060050154908060060154908060070160009054906101000a900460ff16908060070160019054906101000a900473ffffffffffffffffffffffffffffffffffffffff16908060080154908060090160009054906101000a900460ff1690508b565b6000600880549050905090565b600073ffffffffffffffffffffffffffffffffffffffff168273ffffffffffffffffffffffffffffffffffffffff1603610b5a5760006040517f64a0ae92000000000000000000000000000000000000000000000000000000008152600401610b519190613670565b60405180910390fd5b6000610b6e8383610b696120e2565b6120fc565b90508373ffffffffffffffffffffffffffffffffffffffff168173ffffffffffffffffffffffffffffffffffffffff1614610be4578382826040517f64283d7b000000000000000000000000000000000000000000000000000000008152600401610bdb93929190613e0c565b60405180910390fd5b50505050565b600080600d600084815260200190815260200160002090508060070160009054906101000a900460ff16610c53576040517f08c379a0000000000000000000000000000000000000000000000000000000008152600401610c4a90613e8f565b60405180910390fd5b80600301544210610c99576040517f08c379a0000000000000000000000000000000000000000000000000000000008152600401610c9090613efb565b60405180910390fd5b8060050154816006015410610ce3576040517f08c379a0000000000000000000000000000000000000000000000000000000008152600401610cda90613f67565b60405180910390fd5b8060040154341015610d2a576040517f08c379a0000000000000000000000000000000000000000000000000000000008152600401610d2190613fd3565b60405180910390fd5b6000600b549050600b6000815480929190610d4490614022565b9190505550610d533382612272565b6040518060a0016040528082815260200185815260200160001515815260200134815260200142815250600e6000838152602001908152602001600020600082015181600001556020820151816001015560408201518160020160006101000a81548160ff0219169083151502179055506060820151816003015560808201518160040155905050600f6000858152602001908152602001600020819080600181540180825580915050600190039060005260206000200160009091909190915055816006016000815480929190610e2a90614022565b91905055508160040154341115610e92573373ffffffffffffffffffffffffffffffffffffffff166108fc836004015434610e65919061406a565b9081150290604051600060405180830381858888f19350505050158015610e90573d6000803e3d6000fd5b505b8160070160019054906101000a900473ffffffffffffffffffffffffffffffffffffffff1673ffffffffffffffffffffffffffffffffffffffff166108fc83600401549081150290604051600060405180830381858888f19350505050158015610f00573d6000803e3d6000fd5b5083817f085ec0eff4bf526b0dd054adffcd8bd8da42126a1133ce302042973f32029fb033604051610f329190613670565b60405180910390a38092505050919050565b6000600e600083815260200190815260200160002090508060020160009054906101000a900460ff1615610fad576040517f08c379a0000000000000000000000000000000000000000000000000000000008152600401610fa4906140ea565b60405180910390fd5b6000600d6000836001015481526020019081526020016000209050601060008360010154815260200190815260200160002060003373ffffffffffffffffffffffffffffffffffffffff1673ffffffffffffffffffffffffffffffffffffffff16815260200190815260200160002060009054906101000a900460ff16611069576040517f08c379a000000000000000000000000000000000000000000000000000000000815260040161106090614156565b60405180910390fd5b60018260020160006101000a81548160ff0219169083151502179055508160010154837fad0a02848182e7d3a9bb0ae2cc919bdef92f9da6b0a45ced3656cf5443212ede60405160405180910390a3505050565b60006110c883611907565b821061110d5782826040517fa57d13dc000000000000000000000000000000000000000000000000000000008152600401611104929190614176565b60405180910390fd5b600660008473ffffffffffffffffffffffffffffffffffffffff1673ffffffffffffffffffffffffffffffffffffffff168152602001908152602001600020600083815260200190815260200160002054905092915050565b60004286116111aa576040517f08c379a00000000000000000000000000000000000000000000000000000000081526004016111a1906141eb565b60405180910390fd5b600084116111ed576040517f08c379a00000000000000000000000000000000000000000000000000000000081526004016111e49061427d565b60405180910390fd5b84831015611230576040517f08c379a00000000000000000000000000000000000000000000000000000000081526004016112279061430f565b60405180910390fd5b6000600c549050600c600081548092919061124a90614022565b91905055506040518061016001604052808281526020018a8152602001898152602001888152602001878152602001868152602001600081526020016001151581526020013373ffffffffffffffffffffffffffffffffffffffff168152602001858152602001841515815250600d60008381526020019081526020016000206000820151816000015560208201518160010190816112e991906144db565b5060408201518160020190816112ff91906144db565b50606082015181600301556080820151816004015560a0820151816005015560c0820151816006015560e08201518160070160006101000a81548160ff0219169083151502179055506101008201518160070160016101000a81548173ffffffffffffffffffffffffffffffffffffffff021916908373ffffffffffffffffffffffffffffffffffffffff16021790555061012082015181600801556101408201518160090160006101000a81548160ff02191690831515021790555090505060016010600083815260200190815260200160002060003373ffffffffffffffffffffffffffffffffffffffff1673ffffffffffffffffffffffffffffffffffffffff16815260200190815260200160002060006101000a81548160ff021916908315150217905550807fca468f9dfa5e8e69f7a91c44f5cba1020284731b0d80eeddfa11d8db501f246b8a898989336040516114609594939291906145ad565b60405180910390a280915050979650505050505050565b61149283838360405180602001604052806000815250611bfb565b505050565b3373ffffffffffffffffffffffffffffffffffffffff16600d600084815260200190815260200160002060070160019054906101000a900473ffffffffffffffffffffffffffffffffffffffff1673ffffffffffffffffffffffffffffffffffffffff161461153b576040517f08c379a000000000000000000000000000000000000000000000000000000000815260040161153290614679565b60405180910390fd5b600073ffffffffffffffffffffffffffffffffffffffff168173ffffffffffffffffffffffffffffffffffffffff16036115aa576040517f08c379a00000000000000000000000000000000000000000000000000000000081526004016115a1906146e5565b60405180910390fd5b60016010600084815260200190815260200160002060008373ffffffffffffffffffffffffffffffffffffffff1673ffffffffffffffffffffffffffffffffffffffff16815260200190815260200160002060006101000a81548160ff021916908315150217905550817f7429a06e9412e469f0d64f9d222640b0af359f556b709e2913588c227851b88d826040516116439190613670565b60405180910390a25050565b6000611659610adb565b821061169f576000826040517fa57d13dc000000000000000000000000000000000000000000000000000000008152600401611696929190614176565b60405180910390fd5b600882815481106116b3576116b2614705565b5b90600052602060002001549050919050565b600e6020528060005260406000206000915090508060000154908060010154908060020160009054906101000a900460ff16908060030154908060040154905085565b60006117138261201d565b9050919050565b3373ffffffffffffffffffffffffffffffffffffffff16600d600084815260200190815260200160002060070160019054906101000a900473ffffffffffffffffffffffffffffffffffffffff1673ffffffffffffffffffffffffffffffffffffffff16146117be576040517f08c379a00000000000000000000000000000000000000000000000000000000081526004016117b5906147a6565b60405180910390fd5b600d600083815260200190815260200160002060070160019054906101000a900473ffffffffffffffffffffffffffffffffffffffff1673ffffffffffffffffffffffffffffffffffffffff168173ffffffffffffffffffffffffffffffffffffffff1603611862576040517f08c379a000000000000000000000000000000000000000000000000000000000815260040161185990614838565b60405180910390fd5b60006010600084815260200190815260200160002060008373ffffffffffffffffffffffffffffffffffffffff1673ffffffffffffffffffffffffffffffffffffffff16815260200190815260200160002060006101000a81548160ff021916908315150217905550817f7126bef88d1149ccdff9681ed5aecd3ba5ae70c96517551de250af09cebd1a0b826040516118fb9190613670565b60405180910390a25050565b60008073ffffffffffffffffffffffffffffffffffffffff168273ffffffffffffffffffffffffffffffffffffffff160361197a5760006040517f89c62b640000000000000000000000000000000000000000000000000000000081526004016119719190613670565b60405180910390fd5b600360008373ffffffffffffffffffffffffffffffffffffffff1673ffffffffffffffffffffffffffffffffffffffff168152602001908152602001600020549050919050565b6119c9612290565b6119d36000612317565b565b6000600a60009054906101000a900473ffffffffffffffffffffffffffffffffffffffff16905090565b606060018054611a0e90613ddb565b80601f0160208091040260200160405190810160405280929190818152602001828054611a3a90613ddb565b8015611a875780601f10611a5c57610100808354040283529160200191611a87565b820191906000526020600020905b815481529060010190602001808311611a6a57829003601f168201915b5050505050905090565b3373ffffffffffffffffffffffffffffffffffffffff16600d600083815260200190815260200160002060070160019054906101000a900473ffffffffffffffffffffffffffffffffffffffff1673ffffffffffffffffffffffffffffffffffffffff1614611b35576040517f08c379a0000000000000000000000000000000000000000000000000000000008152600401611b2c906148ca565b60405180910390fd5b600d600082815260200190815260200160002060090160009054906101000a900460ff1615600d600083815260200190815260200160002060090160006101000a81548160ff021916908315150217905550807f61b0a81cd9d78898b510b4f6c836bbb638d1e423138e57f47f5e074aa5d7bedb600d600084815260200190815260200160002060090160009054906101000a900460ff16604051611bda91906134ff565b60405180910390a250565b611bf7611bf06120e2565b83836123dd565b5050565b611c06848484610ae8565b611c1a611c116120e2565b8585858561254c565b50505050565b60106020528160005260406000206020528060005260406000206000915091509054906101000a900460ff1681565b6060611c5a8261201d565b506000611c656126fd565b90506000815111611c855760405180602001604052806000815250611cb0565b80611c8f84612714565b604051602001611ca0929190614926565b6040516020818303038152906040525b915050919050565b6060600f6000838152602001908152602001600020805480602002602001604051908101604052809291908181526020018280548015611d1757602002820191906000526020600020905b815481526020019060010190808311611d03575b50505050509050919050565b6000600c54905090565b6000600560008473ffffffffffffffffffffffffffffffffffffffff1673ffffffffffffffffffffffffffffffffffffffff16815260200190815260200160002060008373ffffffffffffffffffffffffffffffffffffffff1673ffffffffffffffffffffffffffffffffffffffff16815260200190815260200160002060009054906101000a900460ff16905092915050565b611dc9612290565b600073ffffffffffffffffffffffffffffffffffffffff168173ffffffffffffffffffffffffffffffffffffffff1603611e3b5760006040517f1e4fbdf7000000000000000000000000000000000000000000000000000000008152600401611e329190613670565b60405180910390fd5b611e4481612317565b50565b6000611e52836127e2565b611e5f5760009050611f35565b8173ffffffffffffffffffffffffffffffffffffffff16611e7f84612823565b73ffffffffffffffffffffffffffffffffffffffff1614611ea35760009050611f35565b6000600e600085815260200190815260200160002090508060020160009054906101000a900460ff1615611edb576000915050611f35565b6000600d60008360010154815260200190815260200160002090508060030154421115611f0d57600092505050611f35565b8060070160009054906101000a900460ff16611f2e57600092505050611f35565b6001925050505b92915050565b60007f80ac58cd000000000000000000000000000000000000000000000000000000007bffffffffffffffffffffffffffffffffffffffffffffffffffffffff1916827bffffffffffffffffffffffffffffffffffffffffffffffffffffffff1916148061200657507f5b5e139f000000000000000000000000000000000000000000000000000000007bffffffffffffffffffffffffffffffffffffffffffffffffffffffff1916827bffffffffffffffffffffffffffffffffffffffffffffffffffffffff1916145b80612016575061201582612860565b5b9050919050565b60008061202983612823565b9050600073ffffffffffffffffffffffffffffffffffffffff168173ffffffffffffffffffffffffffffffffffffffff160361209c57826040517f7e27328900000000000000000000000000000000000000000000000000000000815260040161209391906137bf565b60405180910390fd5b80915050919050565b60006004600083815260200190815260200160002060009054906101000a900473ffffffffffffffffffffffffffffffffffffffff169050919050565b600033905090565b6120f783838360016128ca565b505050565b60008061210884612823565b9050600073ffffffffffffffffffffffffffffffffffffffff168173ffffffffffffffffffffffffffffffffffffffff161461225d576000600e600086815260200190815260200160002090506000600d60008360010154815260200190815260200160002090508060090160009054906101000a900460ff16156121c2576040517f08c379a00000000000000000000000000000000000000000000000000000000081526004016121b9906149bc565b60405180910390fd5b80600301544210612208576040517f08c379a00000000000000000000000000000000000000000000000000000000081526004016121ff90613efb565b60405180910390fd5b8160020160009054906101000a900460ff161561225a576040517f08c379a0000000000000000000000000000000000000000000000000000000008152600401612251906140ea565b60405180910390fd5b50505b612268858585612a8f565b9150509392505050565b61228c828260405180602001604052806000815250612bac565b5050565b6122986120e2565b73ffffffffffffffffffffffffffffffffffffffff166122b66119d5565b73ffffffffffffffffffffffffffffffffffffffff1614612315576122d96120e2565b6040517f118cdaa700000000000000000000000000000000000000000000000000000000815260040161230c9190613670565b60405180910390fd5b565b6000600a60009054906101000a900473ffffffffffffffffffffffffffffffffffffffff16905081600a60006101000a81548173ffffffffffffffffffffffffffffffffffffffff021916908373ffffffffffffffffffffffffffffffffffffffff1602179055508173ffffffffffffffffffffffffffffffffffffffff168173ffffffffffffffffffffffffffffffffffffffff167f8be0079c531659141344cd1fd0a4f28419497f9722a3daafe3b4186f6b6457e060405160405180910390a35050565b600073ffffffffffffffffffffffffffffffffffffffff168273ffffffffffffffffffffffffffffffffffffffff160361244e57816040517f5b08ba180000000000000000000000000000000000000000000000000000000081526004016124459190613670565b60405180910390fd5b80600560008573ffffffffffffffffffffffffffffffffffffffff1673ffffffffffffffffffffffffffffffffffffffff16815260200190815260200160002060008473ffffffffffffffffffffffffffffffffffffffff1673ffffffffffffffffffffffffffffffffffffffff16815260200190815260200160002060006101000a81548160ff0219169083151502179055508173ffffffffffffffffffffffffffffffffffffffff168373ffffffffffffffffffffffffffffffffffffffff167f17307eab39ab6107e8899845ad3d59bd9653f200f220920489ca2b5937696c318360405161253f91906134ff565b60405180910390a3505050565b60008373ffffffffffffffffffffffffffffffffffffffff163b11156126f6578273ffffffffffffffffffffffffffffffffffffffff1663150b7a02868685856040518563ffffffff1660e01b81526004016125ab9493929190614a31565b6020604051808303816000875af19250505080156125e757506040513d601f19601f820116820180604052508101906125e49190614a92565b60015b61266b573d8060008114612617576040519150601f19603f3d011682016040523d82523d6000602084013e61261c565b606091505b50600081510361266357836040517f64a0ae9200000000000000000000000000000000000000000000000000000000815260040161265a9190613670565b60405180910390fd5b805181602001fd5b63150b7a0260e01b7bffffffffffffffffffffffffffffffffffffffffffffffffffffffff1916817bffffffffffffffffffffffffffffffffffffffffffffffffffffffff1916146126f457836040517f64a0ae920000000000000000000000000000000000000000000000000000000081526004016126eb9190613670565b60405180910390fd5b505b5050505050565b606060405180602001604052806000815250905090565b60606000600161272384612bd0565b01905060008167ffffffffffffffff81111561274257612741613837565b5b6040519080825280601f01601f1916602001820160405280156127745781602001600182028036833780820191505090505b509050600082602001820190505b6001156127d7578080600190039150507f3031323334353637383961626364656600000000000000000000000000000000600a86061a8153600a85816127cb576127ca614abf565b5b04945060008503612782575b819350505050919050565b60008073ffffffffffffffffffffffffffffffffffffffff1661280483612823565b73ffffffffffffffffffffffffffffffffffffffff1614159050919050565b60006002600083815260200190815260200160002060009054906101000a900473ffffffffffffffffffffffffffffffffffffffff169050919050565b60007f01ffc9a7000000000000000000000000000000000000000000000000000000007bffffffffffffffffffffffffffffffffffffffffffffffffffffffff1916827bffffffffffffffffffffffffffffffffffffffffffffffffffffffff1916149050919050565b80806129035750600073ffffffffffffffffffffffffffffffffffffffff168273ffffffffffffffffffffffffffffffffffffffff1614155b15612a375760006129138461201d565b9050600073ffffffffffffffffffffffffffffffffffffffff168373ffffffffffffffffffffffffffffffffffffffff161415801561297e57508273ffffffffffffffffffffffffffffffffffffffff168173ffffffffffffffffffffffffffffffffffffffff1614155b8015612991575061298f8184611d2d565b155b156129d357826040517fa9fbf51f0000000000000000000000000000000000000000000000000000000081526004016129ca9190613670565b60405180910390fd5b8115612a3557838573ffffffffffffffffffffffffffffffffffffffff168273ffffffffffffffffffffffffffffffffffffffff167f8c5be1e5ebec7d5bd14f71427d1e84f3dd0314c0f7b2291e5b200ac8c7c3b92560405160405180910390a45b505b836004600085815260200190815260200160002060006101000a81548173ffffffffffffffffffffffffffffffffffffffff021916908373ffffffffffffffffffffffffffffffffffffffff16021790555050505050565b600080612a9d858585612d23565b9050600073ffffffffffffffffffffffffffffffffffffffff168173ffffffffffffffffffffffffffffffffffffffff1603612ae157612adc84612f3d565b612b20565b8473ffffffffffffffffffffffffffffffffffffffff168173ffffffffffffffffffffffffffffffffffffffff1614612b1f57612b1e8185612f86565b5b5b600073ffffffffffffffffffffffffffffffffffffffff168573ffffffffffffffffffffffffffffffffffffffff1603612b6257612b5d84613071565b612ba1565b8473ffffffffffffffffffffffffffffffffffffffff168173ffffffffffffffffffffffffffffffffffffffff1614612ba057612b9f8585613142565b5b5b809150509392505050565b612bb683836131cd565b612bcb612bc16120e2565b600085858561254c565b505050565b600080600090507a184f03e93ff9f4daa797ed6e38ed64bf6a1f0100000000000000008310612c2e577a184f03e93ff9f4daa797ed6e38ed64bf6a1f0100000000000000008381612c2457612c23614abf565b5b0492506040810190505b6d04ee2d6d415b85acef81000000008310612c6b576d04ee2d6d415b85acef81000000008381612c6157612c60614abf565b5b0492506020810190505b662386f26fc100008310612c9a57662386f26fc100008381612c9057612c8f614abf565b5b0492506010810190505b6305f5e1008310612cc3576305f5e1008381612cb957612cb8614abf565b5b0492506008810190505b6127108310612ce8576127108381612cde57612cdd614abf565b5b0492506004810190505b60648310612d0b5760648381612d0157612d00614abf565b5b0492506002810190505b600a8310612d1a576001810190505b80915050919050565b600080612d2f84612823565b9050600073ffffffffffffffffffffffffffffffffffffffff168373ffffffffffffffffffffffffffffffffffffffff1614612d7157612d708184866132c6565b5b600073ffffffffffffffffffffffffffffffffffffffff168173ffffffffffffffffffffffffffffffffffffffff1614612e0257612db36000856000806128ca565b6001600360008373ffffffffffffffffffffffffffffffffffffffff1673ffffffffffffffffffffffffffffffffffffffff168152602001908152602001600020600082825403925050819055505b600073ffffffffffffffffffffffffffffffffffffffff168573ffffffffffffffffffffffffffffffffffffffff1614612e85576001600360008773ffffffffffffffffffffffffffffffffffffffff1673ffffffffffffffffffffffffffffffffffffffff168152602001908152602001600020600082825401925050819055505b846002600086815260200190815260200160002060006101000a81548173ffffffffffffffffffffffffffffffffffffffff021916908373ffffffffffffffffffffffffffffffffffffffff160217905550838573ffffffffffffffffffffffffffffffffffffffff168273ffffffffffffffffffffffffffffffffffffffff167fddf252ad1be2c89b69c2b068fc378daa952ba7f163c4a11628f55a4df523b3ef60405160405180910390a4809150509392505050565b6008805490506009600083815260200190815260200160002081905550600881908060018154018082558091505060019003906000526020600020016000909190919091505550565b6000612f9183611907565b90506000600760008481526020019081526020016000205490506000600660008673ffffffffffffffffffffffffffffffffffffffff1673ffffffffffffffffffffffffffffffffffffffff168152602001908152602001600020905082821461303d5760008160008581526020019081526020016000205490508082600085815260200190815260200160002081905550826007600083815260200190815260200160002081905550505b6007600085815260200190815260200160002060009055806000848152602001908152602001600020600090555050505050565b60006001600880549050613085919061406a565b90506000600960008481526020019081526020016000205490506000600883815481106130b5576130b4614705565b5b9060005260206000200154905080600883815481106130d7576130d6614705565b5b90600052602060002001819055508160096000838152602001908152602001600020819055506009600085815260200190815260200160002060009055600880548061312657613125614aee565b5b6001900381819060005260206000200160009055905550505050565b6000600161314f84611907565b613159919061406a565b905081600660008573ffffffffffffffffffffffffffffffffffffffff1673ffffffffffffffffffffffffffffffffffffffff168152602001908152602001600020600083815260200190815260200160002081905550806007600084815260200190815260200160002081905550505050565b600073ffffffffffffffffffffffffffffffffffffffff168273ffffffffffffffffffffffffffffffffffffffff160361323f5760006040517f64a0ae920000000000000000000000000000000000000000000000000000000081526004016132369190613670565b60405180910390fd5b600061324d838360006120fc565b9050600073ffffffffffffffffffffffffffffffffffffffff168173ffffffffffffffffffffffffffffffffffffffff16146132c15760006040517f73c6ac6e0000000000000000000000000000000000000000000000000000000081526004016132b89190613670565b60405180910390fd5b505050565b6132d183838361338a565b61338557600073ffffffffffffffffffffffffffffffffffffffff168373ffffffffffffffffffffffffffffffffffffffff160361334657806040517f7e27328900000000000000000000000000000000000000000000000000000000815260040161333d91906137bf565b60405180910390fd5b81816040517f177e802f00000000000000000000000000000000000000000000000000000000815260040161337c929190614176565b60405180910390fd5b505050565b60008073ffffffffffffffffffffffffffffffffffffffff168373ffffffffffffffffffffffffffffffffffffffff161415801561344257508273ffffffffffffffffffffffffffffffffffffffff168473ffffffffffffffffffffffffffffffffffffffff16148061340357506134028484611d2d565b5b8061344157508273ffffffffffffffffffffffffffffffffffffffff16613429836120a5565b73ffffffffffffffffffffffffffffffffffffffff16145b5b90509392505050565b6000604051905090565b600080fd5b600080fd5b60007fffffffff0000000000000000000000000000000000000000000000000000000082169050919050565b6134948161345f565b811461349f57600080fd5b50565b6000813590506134b18161348b565b92915050565b6000602082840312156134cd576134cc613455565b5b60006134db848285016134a2565b91505092915050565b60008115159050919050565b6134f9816134e4565b82525050565b600060208201905061351460008301846134f0565b92915050565b600081519050919050565b600082825260208201905092915050565b60005b83811015613554578082015181840152602081019050613539565b60008484015250505050565b6000601f19601f8301169050919050565b600061357c8261351a565b6135868185613525565b9350613596818560208601613536565b61359f81613560565b840191505092915050565b600060208201905081810360008301526135c48184613571565b905092915050565b6000819050919050565b6135df816135cc565b81146135ea57600080fd5b50565b6000813590506135fc816135d6565b92915050565b60006020828403121561361857613617613455565b5b6000613626848285016135ed565b91505092915050565b600073ffffffffffffffffffffffffffffffffffffffff82169050919050565b600061365a8261362f565b9050919050565b61366a8161364f565b82525050565b60006020820190506136856000830184613661565b92915050565b6136948161364f565b811461369f57600080fd5b50565b6000813590506136b18161368b565b92915050565b600080604083850312156136ce576136cd613455565b5b60006136dc858286016136a2565b92505060206136ed858286016135ed565b9150509250929050565b613700816135cc565b82525050565b60006101608201905061371c600083018e6136f7565b818103602083015261372e818d613571565b90508181036040830152613742818c613571565b9050613751606083018b6136f7565b61375e608083018a6136f7565b61376b60a08301896136f7565b61377860c08301886136f7565b61378560e08301876134f0565b613793610100830186613661565b6137a16101208301856136f7565b6137af6101408301846134f0565b9c9b505050505050505050505050565b60006020820190506137d460008301846136f7565b92915050565b6000806000606084860312156137f3576137f2613455565b5b6000613801868287016136a2565b9350506020613812868287016136a2565b9250506040613823868287016135ed565b9150509250925092565b600080fd5b600080fd5b7f4e487b7100000000000000000000000000000000000000000000000000000000600052604160045260246000fd5b61386f82613560565b810181811067ffffffffffffffff8211171561388e5761388d613837565b5b80604052505050565b60006138a161344b565b90506138ad8282613866565b919050565b600067ffffffffffffffff8211156138cd576138cc613837565b5b6138d682613560565b9050602081019050919050565b82818337600083830152505050565b6000613905613900846138b2565b613897565b90508281526020810184848401111561392157613920613832565b5b61392c8482856138e3565b509392505050565b600082601f8301126139495761394861382d565b5b81356139598482602086016138f2565b91505092915050565b61396b816134e4565b811461397657600080fd5b50565b60008135905061398881613962565b92915050565b600080600080600080600060e0888a0312156139ad576139ac613455565b5b600088013567ffffffffffffffff8111156139cb576139ca61345a565b5b6139d78a828b01613934565b975050602088013567ffffffffffffffff8111156139f8576139f761345a565b5b613a048a828b01613934565b9650506040613a158a828b016135ed565b9550506060613a268a828b016135ed565b9450506080613a378a828b016135ed565b93505060a0613a488a828b016135ed565b92505060c0613a598a828b01613979565b91505092959891949750929550565b60008060408385031215613a7f57613a7e613455565b5b6000613a8d858286016135ed565b9250506020613a9e858286016136a2565b9150509250929050565b600060a082019050613abd60008301886136f7565b613aca60208301876136f7565b613ad760408301866134f0565b613ae460608301856136f7565b613af160808301846136f7565b9695505050505050565b600060208284031215613b1157613b10613455565b5b6000613b1f848285016136a2565b91505092915050565b60008060408385031215613b3f57613b3e613455565b5b6000613b4d858286016136a2565b9250506020613b5e85828601613979565b9150509250929050565b600067ffffffffffffffff821115613b8357613b82613837565b5b613b8c82613560565b9050602081019050919050565b6000613bac613ba784613b68565b613897565b905082815260208101848484011115613bc857613bc7613832565b5b613bd38482856138e3565b509392505050565b600082601f830112613bf057613bef61382d565b5b8135613c00848260208601613b99565b91505092915050565b60008060008060808587031215613c2357613c22613455565b5b6000613c31878288016136a2565b9450506020613c42878288016136a2565b9350506040613c53878288016135ed565b925050606085013567ffffffffffffffff811115613c7457613c7361345a565b5b613c8087828801613bdb565b91505092959194509250565b600081519050919050565b600082825260208201905092915050565b6000819050602082019050919050565b613cc1816135cc565b82525050565b6000613cd38383613cb8565b60208301905092915050565b6000602082019050919050565b6000613cf782613c8c565b613d018185613c97565b9350613d0c83613ca8565b8060005b83811015613d3d578151613d248882613cc7565b9750613d2f83613cdf565b925050600181019050613d10565b5085935050505092915050565b60006020820190508181036000830152613d648184613cec565b905092915050565b60008060408385031215613d8357613d82613455565b5b6000613d91858286016136a2565b9250506020613da2858286016136a2565b9150509250929050565b7f4e487b7100000000000000000000000000000000000000000000000000000000600052602260045260246000fd5b60006002820490506001821680613df357607f821691505b602082108103613e0657613e05613dac565b5b50919050565b6000606082019050613e216000830186613661565b613e2e60208301856136f7565b613e3b6040830184613661565b949350505050565b7f4576656e74206973206e6f742061637469766500000000000000000000000000600082015250565b6000613e79601383613525565b9150613e8482613e43565b602082019050919050565b60006020820190508181036000830152613ea881613e6c565b9050919050565b7f4576656e742068617320616c7265616479206f63637572726564000000000000600082015250565b6000613ee5601a83613525565b9150613ef082613eaf565b602082019050919050565b60006020820190508181036000830152613f1481613ed8565b9050919050565b7f4576656e7420697320736f6c64206f7574000000000000000000000000000000600082015250565b6000613f51601183613525565b9150613f5c82613f1b565b602082019050919050565b60006020820190508181036000830152613f8081613f44565b9050919050565b7f496e73756666696369656e74207061796d656e74000000000000000000000000600082015250565b6000613fbd601483613525565b9150613fc882613f87565b602082019050919050565b60006020820190508181036000830152613fec81613fb0565b9050919050565b7f4e487b7100000000000000000000000000000000000000000000000000000000600052601160045260246000fd5b600061402d826135cc565b91507fffffffffffffffffffffffffffffffffffffffffffffffffffffffffffffffff820361405f5761405e613ff3565b5b600182019050919050565b6000614075826135cc565b9150614080836135cc565b925082820390508181111561409857614097613ff3565b5b92915050565b7f5469636b65742068617320616c7265616479206265656e207573656400000000600082015250565b60006140d4601c83613525565b91506140df8261409e565b602082019050919050565b60006020820190508181036000830152614103816140c7565b9050919050565b7f4e6f7420617574686f72697a65642061732076616c696461746f720000000000600082015250565b6000614140601b83613525565b915061414b8261410a565b602082019050919050565b6000602082019050818103600083015261416f81614133565b9050919050565b600060408201905061418b6000830185613661565b61419860208301846136f7565b9392505050565b7f4576656e742064617465206d75737420626520696e2074686520667574757265600082015250565b60006141d5602083613525565b91506141e08261419f565b602082019050919050565b60006020820190508181036000830152614204816141c8565b9050919050565b7f4d6178696d756d207469636b657473206d75737420626520677265617465722060008201527f7468616e207a65726f0000000000000000000000000000000000000000000000602082015250565b6000614267602983613525565b91506142728261420b565b604082019050919050565b600060208201905081810360008301526142968161425a565b9050919050565b7f4d617820726573656c6c207072696365206d757374206265203e3d206f72696760008201527f696e616c20707269636500000000000000000000000000000000000000000000602082015250565b60006142f9602a83613525565b91506143048261429d565b604082019050919050565b60006020820190508181036000830152614328816142ec565b9050919050565b60008190508160005260206000209050919050565b60006020601f8301049050919050565b600082821b905092915050565b6000600883026143917fffffffffffffffffffffffffffffffffffffffffffffffffffffffffffffffff82614354565b61439b8683614354565b95508019841693508086168417925050509392505050565b6000819050919050565b60006143d86143d36143ce846135cc565b6143b3565b6135cc565b9050919050565b6000819050919050565b6143f2836143bd565b6144066143fe826143df565b848454614361565b825550505050565b600090565b61441b61440e565b6144268184846143e9565b505050565b5b8181101561444a5761443f600082614413565b60018101905061442c565b5050565b601f82111561448f576144608161432f565b61446984614344565b81016020851015614478578190505b61448c61448485614344565b83018261442b565b50505b505050565b600082821c905092915050565b60006144b260001984600802614494565b1980831691505092915050565b60006144cb83836144a1565b9150826002028217905092915050565b6144e48261351a565b67ffffffffffffffff8111156144fd576144fc613837565b5b6145078254613ddb565b61451282828561444e565b600060209050601f8311600181146145455760008415614533578287015190505b61453d85826144bf565b8655506145a5565b601f1984166145538661432f565b60005b8281101561457b57848901518255600182019150602085019450602081019050614556565b868310156145985784890151614594601f8916826144a1565b8355505b6001600288020188555050505b505050505050565b600060a08201905081810360008301526145c78188613571565b90506145d660208301876136f7565b6145e360408301866136f7565b6145f060608301856136f7565b6145fd6080830184613661565b9695505050505050565b7f4f6e6c79206576656e74206f7267616e697a65722063616e206164642076616c60008201527f696461746f727300000000000000000000000000000000000000000000000000602082015250565b6000614663602783613525565b915061466e82614607565b604082019050919050565b6000602082019050818103600083015261469281614656565b9050919050565b7f496e76616c69642076616c696461746f72206164647265737300000000000000600082015250565b60006146cf601983613525565b91506146da82614699565b602082019050919050565b600060208201905081810360008301526146fe816146c2565b9050919050565b7f4e487b7100000000000000000000000000000000000000000000000000000000600052603260045260246000fd5b7f4f6e6c79206576656e74206f7267616e697a65722063616e2072656d6f76652060008201527f76616c696461746f727300000000000000000000000000000000000000000000602082015250565b6000614790602a83613525565b915061479b82614734565b604082019050919050565b600060208201905081810360008301526147bf81614783565b9050919050565b7f43616e6e6f742072656d6f7665206576656e74206f7267616e697a657220617360008201527f2076616c696461746f7200000000000000000000000000000000000000000000602082015250565b6000614822602a83613525565b915061482d826147c6565b604082019050919050565b6000602082019050818103600083015261485181614815565b9050919050565b7f4f6e6c79206576656e74206f7267616e697a65722063616e20746f67676c652060008201527f7472616e73666572206c6f636b00000000000000000000000000000000000000602082015250565b60006148b4602d83613525565b91506148bf82614858565b604082019050919050565b600060208201905081810360008301526148e3816148a7565b9050919050565b600081905092915050565b60006149008261351a565b61490a81856148ea565b935061491a818560208601613536565b80840191505092915050565b600061493282856148f5565b915061493e82846148f5565b91508190509392505050565b7f5472616e736665727320617265206c6f636b656420666f72207468697320657660008201527f656e740000000000000000000000000000000000000000000000000000000000602082015250565b60006149a6602383613525565b91506149b18261494a565b604082019050919050565b600060208201905081810360008301526149d581614999565b9050919050565b600081519050919050565b600082825260208201905092915050565b6000614a03826149dc565b614a0d81856149e7565b9350614a1d818560208601613536565b614a2681613560565b840191505092915050565b6000608082019050614a466000830187613661565b614a536020830186613661565b614a6060408301856136f7565b8181036060830152614a7281846149f8565b905095945050505050565b600081519050614a8c8161348b565b92915050565b600060208284031215614aa857614aa7613455565b5b6000614ab684828501614a7d565b91505092915050565b7f4e487b7100000000000000000000000000000000000000000000000000000000600052601260045260246000fd5b7f4e487b7100000000000000000000000000000000000000000000000000000000600052603160045260246000fdfea264697066735822122099bf9ad5b6b650f8c0fdd29ef763a66f7cd35e84e73173561f11c5654f5c0fe464736f6c63430008140033",
  "linkReferences": {},
  "deployedLinkReferences": {}
}