{
  "_format": "hh-sol-artifact-1",
  "contractName": "EventTicket",
  "sourceName": "contracts/EventTicket.sol",
  "abi": [
    {
      "inputs": [],
      "stateMutability": "nonpayable",
      "type": "constructor"
    },
    {
      "inputs": [],
      "name": "ERC721EnumerableForbiddenBatchMint",
      "type": "error"
    },
    {
      "inputs": [
        {
          "internalType": "address",
          "name": "sender",
          "type": "address"
        },
        {
          "internalType": "uint256",
          "name": "tokenId",
          "type": "uint256"
        },
        {
          "internalType": "address",
          "name": "owner",
          "type": "address"
        }
      ],
      "name": "ERC721IncorrectOwner",
      "type": "error"
    },
    {
      "inputs": [
        {
          "internalType": "address",
          "name": "operator",
          "type": "address"
        },
        {
          "internalType": "uint256",
          "name": "tokenId",
          "type": "uint256"
        }
      ],
      "name": "ERC721InsufficientApproval",
      "type": "error"
    },
    {
      "inputs": [
        {
          "internalType": "address",
          "name": "approver",
          "type": "address"
        }
      ],
      "name": "ERC721InvalidApprover",
      "type": "error"
    },
    {
      "inputs": [
        {
          "internalType": "address",
          "name": "operator",
          "type": "address"
        }
      ],
      "name": "ERC721InvalidOperator",
      "type": "error"
    },
    {
      "inputs": [
        {
          "internalType": "address",
          "name": "owner",
          "type": "address"
        }
      ],
      "name": "ERC721InvalidOwner",
      "type": "error"
    },
    {
      "inputs": [
        {
          "internalType": "address",
          "name": "receiver",
          "type": "address"
        }
      ],
      "name": "ERC721InvalidReceiver",
      "type": "error"
    },
    {
      "inputs": [
        {
          "internalType": "address",
          "name": "sender",
          "type": "address"
        }
      ],
      "name": "ERC721InvalidSender",
      "type": "error"
    },
    {
      "inputs": [
        {
          "internalType": "uint256",
          "name": "tokenId",
          "type": "uint256"
        }
      ],
      "name": "ERC721NonexistentToken",
      "type": "error"
    },
    {
      "inputs": [
        {
          "internalType": "address",
          "name": "owner",
          "type": "address"
        },
        {
          "internalType": "uint256",
          "name": "index",
          "type": "uint256"
        }
      ],
      "name": "ERC721OutOfBoundsIndex",
      "type": "error"
    },
    {
      "inputs": [
        {
          "internalType": "address",
          "name": "owner",
          "type": "address"
        }
      ],
      "name": "OwnableInvalidOwner",
      "type": "error"
    },
    {
      "inputs": [
        {
          "internalType": "address",
          "name": "account",
          "type": "address"
        }
      ],
      "name": "OwnableUnauthorizedAccount",
      "type": "error"
    },
    {
      "anonymous": false,
      "inputs": [
        {
          "indexed": true,
          "internalType": "address",
          "name": "owner",
          "type": "address"
        },
        {
          "indexed": true,
          "internalType": "address",
          "name": "approved",
          "type": "address"
        },
        {
          "indexed": true,
          "internalType": "uint256",
          "name": "tokenId",
          "type": "uint256"
        }
      ],
      "name": "Approval",
      "type": "event"
    },
    {
      "anonymous": false,
      "inputs": [
        {
          "indexed": true,
          "internalType": "address",
          "name": "owner",
          "type": "address"
        },
        {
          "indexed": true,
          "internalType": "address",
          "name": "operator",
          "type": "address"
        },
        {
          "indexed": false,
          "internalType": "bool",
          "name": "approved",
          "type": "bool"
        }
      ],
      "name": "ApprovalForAll",
      "type": "event"
    },
    {
      "anonymous": false,
      "inputs": [
        {
          "indexed": true,
          "internalType": "uint256",
          "name": "eventId",
          "type": "uint256"
        },
        {
          "indexed": false,
          "internalType": "string",
          "name": "name",
          "type": "string"
        },
        {
          "indexed": false,
          "internalType": "uint256",
          "name": "date",
          "type": "uint256"
        },
        {
          "indexed": false,
          "internalType": "uint256",
          "name": "price",
          "type": "uint256"
        },
        {
          "indexed": false,
          "internalType": "uint256",
          "name": "maxTickets",
          "type": "uint256"
        },
        {
          "indexed": false,
          "internalType": "address",
          "name": "organizer",
          "type": "address"
        }
      ],
      "name": "EventCreated",
      "type": "event"
    },
    {
      "anonymous": false,
      "inputs": [
        {
          "indexed": true,
          "internalType": "address",
          "name": "previousOwner",
          "type": "address"
        },
        {
          "indexed": true,
          "internalType": "address",
          "name": "newOwner",
          "type": "address"
        }
      ],
      "name": "OwnershipTransferred",
      "type": "event"
    },
    {
      "anonymous": false,
      "inputs": [
        {
          "indexed": true,
          "internalType": "uint256",
          "name": "tokenId",
          "type": "uint256"
        },
        {
          "indexed": true,
          "internalType": "uint256",
          "name": "eventId",
          "type": "uint256"
        },
        {
          "indexed": false,
          "internalType": "address",
          "name": "buyer",
          "type": "address"
        }
      ],
      "name": "TicketMinted",
      "type": "event"
    },
    {
      "anonymous": false,
      "inputs": [
        {
          "indexed": true,
          "internalType": "uint256",
          "name": "tokenId",
          "type": "uint256"
        },
        {
          "indexed": true,
          "internalType": "uint256",
          "name": "eventId",
          "type": "uint256"
        }
      ],
      "name": "TicketUsed",
      "type": "event"
    },
    {
      "anonymous": false,
      "inputs": [
        {
          "indexed": true,
          "internalType": "address",
          "name": "from",
          "type": "address"
        },
        {
          "indexed": true,
          "internalType": "address",
          "name": "to",
          "type": "address"
        },
        {
          "indexed": true,
          "internalType": "uint256",
          "name": "tokenId",
          "type": "uint256"
        }
      ],
      "name": "Transfer",
      "type": "event"
    },
    {
      "anonymous": false,
      "inputs": [
        {
          "indexed": true,
          "internalType": "uint256",
          "name": "eventId",
          "type": "uint256"
        },
        {
          "indexed": false,
          "internalType": "bool",
          "name": "locked",
          "type": "bool"
        }
      ],
      "name": "TransferLockToggled",
      "type": "event"
    },
    {
      "anonymous": false,
      "inputs": [
        {
          "indexed": true,
          "internalType": "uint256",
          "name": "eventId",
          "type": "uint256"
        },
        {
          "indexed": false,
          "internalType": "address",
          "name": "validator",
          "type": "address"
        }
      ],
      "name": "ValidatorAdded",
      "type": "event"
    },
    {
      "anonymous": false,
      "inputs": [
        {
          "indexed": true,
          "internalType": "uint256",
          "name": "eventId",
          "type": "uint256"
        },
        {
          "indexed": false,
          "internalType": "address",
          "name": "validator",
          "type": "address"
        }
      ],
      "name": "ValidatorRemoved",
      "type": "event"
    },
    {
      "inputs": [
        {
          "internalType": "uint256",
          "name": "eventId",
          "type": "uint256"
        },
        {
          "internalType": "address",
          "name": "validator",
          "type": "address"
        }
      ],
      "name": "addValidator",
      "outputs": [],
      "stateMutability": "nonpayable",
      "type": "function"
    },
    {
      "inputs": [
        {
          "internalType": "address",
          "name": "to",
          "type": "address"
        },
        {
          "internalType": "uint256",
          "name": "tokenId",
          "type": "uint256"
        }
      ],
      "name": "approve",
      "outputs": [],
      "stateMutability": "nonpayable",
      "type": "function"
    },
    {
      "inputs": [
        {
          "internalType": "address",
          "name": "owner",
          "type": "address"
        }
      ],
      "name": "balanceOf",
      "outputs": [
        {
          "internalType": "uint256",
          "name": "",
          "type": "uint256"
        }
      ],
      "stateMutability": "view",
      "type": "function"
    },
    {
      "inputs": [
        {
          "internalType": "string",
          "name": "name",
          "type": "string"
        },
        {
          "internalType": "string",
          "name": "description",
          "type": "string"
        },
        {
          "internalType": "uint256",
          "name": "date",
          "type": "uint256"
        },
        {
          "internalType": "uint256",
          "name": "price",
          "type": "uint256"
        },
        {
          "internalType": "uint256",
          "name": "maxTickets",
          "type": "uint256"
        },
        {
          "internalType": "uint256",
          "name": "maxResellPrice",
          "type": "uint256"
        },
        {
          "internalType": "bool",
          "name": "transferLocked",
          "type": "bool"
        }
      ],
      "name": "createEvent",
      "outputs": [
        {
          "internalType": "uint256",
          "name": "",
          "type": "uint256"
        }
      ],
      "stateMutability": "nonpayable",
      "type": "function"
    },
    {
      "inputs": [
        {
          "internalType": "uint256",
          "name": "",
          "type": "uint256"
        },
        {
          "internalType": "address",
          "name": "",
          "type": "address"
        }
      ],
      "name": "eventValidators",
      "outputs": [
        {
          "internalType": "bool",
          "name": "",
          "type": "bool"
        }
      ],
      "stateMutability": "view",
      "type": "function"
    },
    {
      "inputs": [
        {
          "internalType": "uint256",
          "name": "",
          "type": "uint256"
        }
      ],
      "name": "events",
      "outputs": [
        {
          "internalType": "uint256",
          "name": "eventId",
          "type": "uint256"
        },
        {
          "internalType": "string",
          "name": "name",
          "type": "string"
        },
        {
          "internalType": "string",
          "name": "description",
          "type": "string"
        },
        {
          "internalType": "uint256",
          "name": "date",
          "type": "uint256"
        },
        {
          "internalType": "uint256",
          "name": "price",
          "type": "uint256"
        },
        {
          "internalType": "uint256",
          "name": "maxTickets",
          "type": "uint256"
        },
        {
          "internalType": "uint256",
          "name": "ticketsSold",
          "type": "uint256"
        },
        {
          "internalType": "bool",
          "name": "isActive",
          "type": "bool"
        },
        {
          "internalType": "address",
          "name": "organizer",
          "type": "address"
        },
        {
          "internalType": "uint256",
          "name": "maxResellPrice",
          "type": "uint256"
        },
        {
          "internalType": "bool",
          "name": "transferLocked",
          "type": "bool"
        }
      ],
      "stateMutability": "view",
      "type": "function"
    },
    {
      "inputs": [
        {
          "internalType": "uint256",
          "name": "tokenId",
          "type": "uint256"
        }
      ],
      "name": "getApproved",
      "outputs": [
        {
          "internalType": "address",
          "name": "",
          "type": "address"
        }
      ],
      "stateMutability": "view",
      "type": "function"
    },
    {
      "inputs": [
        {
          "internalType": "uint256",
          "name": "eventId",
          "type": "uint256"
        }
      ],
      "name": "getEventTickets",
      "outputs": [
        {
          "internalType": "uint256[]",
          "name": "",
          "type": "uint256[]"
        }
      ],
      "stateMutability": "view",
      "type": "function"
    },
    {
      "inputs": [
        {
          "internalType": "address",
          "name": "owner",
          "type": "address"
        },
        {
          "internalType": "address",
          "name": "operator",
          "type": "address"
        }
      ],
      "name": "isApprovedForAll",
      "outputs": [
        {
          "internalType": "bool",
          "name": "",
          "type": "bool"
        }
      ],
      "stateMutability": "view",
      "type": "function"
    },
    {
      "inputs": [
        {
          "internalType": "uint256",
          "name": "eventId",
          "type": "uint256"
        }
      ],
      "name": "mintTicket",
      "outputs": [
        {
          "internalType": "uint256",
          "name": "",
          "type": "uint256"
        }
      ],
      "stateMutability": "payable",
      "type": "function"
    },
    {
      "inputs": [],
      "name": "name",
      "outputs": [
        {
          "internalType": "string",
          "name": "",
          "type": "string"
        }
      ],
      "stateMutability": "view",
      "type": "function"
    },
    {
      "inputs": [],
      "name": "owner",
      "outputs": [
        {
          "internalType": "address",
          "name": "",
          "type": "address"
        }
      ],
      "stateMutability": "view",
      "type": "function"
    },
    {
      "inputs": [
        {
          "internalType": "uint256",
          "name": "tokenId",
          "type": "uint256"
        }
      ],
      "name": "ownerOf",
      "outputs": [
        {
          "internalType": "address",
          "name": "",
          "type": "address"
        }
      ],
      "stateMutability": "view",
      "type": "function"
    },
    {
      "inputs": [
        {
          "internalType": "uint256",
          "name": "eventId",
          "type": "uint256"
        },
        {
          "internalType": "address",
          "name": "validator",
          "type": "address"
        }
      ],
      "name": "removeValidator",
      "outputs": [],
      "stateMutability": "nonpayable",
      "type": "function"
    },
    {
      "inputs": [],
      "name": "renounceOwnership",
      "outputs": [],
      "stateMutability": "nonpayable",
      "type": "function"
    },
    {
      "inputs": [
        {
          "internalType": "address",
          "name": "from",
          "type": "address"
        },
        {
          "internalType": "address",
          "name": "to",
          "type": "address"
        },
        {
          "internalType": "uint256",
          "name": "tokenId",
          "type": "uint256"
        }
      ],
      "name": "safeTransferFrom",
      "outputs": [],
      "stateMutability": "nonpayable",
      "type": "function"
    },
    {
      "inputs": [
        {
          "internalType": "address",
          "name": "from",
          "type": "address"
        },
        {
          "internalType": "address",
          "name": "to",
          "type": "address"
        },
        {
          "internalType": "uint256",
          "name": "tokenId",
          "type": "uint256"
        },
        {
          "internalType": "bytes",
          "name": "data",
          "type": "bytes"
        }
      ],
      "name": "safeTransferFrom",
      "outputs": [],
      "stateMutability": "nonpayable",
      "type": "function"
    },
    {
      "inputs": [
        {
          "internalType": "address",
          "name": "operator",
          "type": "address"
        },
        {
          "internalType": "bool",
          "name": "approved",
          "type": "bool"
        }
      ],
      "name": "setApprovalForAll",
      "outputs": [],
      "stateMutability": "nonpayable",
      "type": "function"
    },
    {
      "inputs": [
        {
          "internalType": "bytes4",
          "name": "interfaceId",
          "type": "bytes4"
        }
      ],
      "name": "supportsInterface",
      "outputs": [
        {
          "internalType": "bool",
          "name": "",
          "type": "bool"
        }
      ],
      "stateMutability": "view",
      "type": "function"
    },
    {
      "inputs": [],
      "name": "symbol",
      "outputs": [
        {
          "internalType": "string",
          "name": "",
          "type": "string"
        }
      ],
      "stateMutability": "view",
      "type": "function"
    },
    {
      "inputs": [
        {
          "internalType": "uint256",
          "name": "",
          "type": "uint256"
        }
      ],
      "name": "tickets",
      "outputs": [
        {
          "internalType": "uint256",
          "name": "tokenId",
          "type": "uint256"
        },
        {
          "internalType": "uint256",
          "name": "eventId",
          "type": "uint256"
        },
        {
          "internalType": "bool",
          "name": "used",
          "type": "bool"
        },
        {
          "internalType": "uint256",
          "name": "purchasePrice",
          "type": "uint256"
        },
        {
          "internalType": "uint256",
          "name": "purchaseTime",
          "type": "uint256"
        }
      ],
      "stateMutability": "view",
      "type": "function"
    },
    {
      "inputs": [
        {
          "internalType": "uint256",
          "name": "eventId",
          "type": "uint256"
        }
      ],
      "name": "toggleTransferLock",
      "outputs": [],
      "stateMutability": "nonpayable",
      "type": "function"
    },
    {
      "inputs": [
        {
          "internalType": "uint256",
          "name": "index",
          "type": "uint256"
        }
      ],
      "name": "tokenByIndex",
      "outputs": [
        {
          "internalType": "uint256",
          "name": "",
          "type": "uint256"
        }
      ],
      "stateMutability": "view",
      "type": "function"
    },
    {
      "inputs": [
        {
          "internalType": "address",
          "name": "owner",
          "type": "address"
        },
        {
          "internalType": "uint256",
          "name": "index",
          "type": "uint256"
        }
      ],
      "name": "tokenOfOwnerByIndex",
      "outputs": [
        {
          "internalType": "uint256",
          "name": "",
          "type": "uint256"
        }
      ],
      "stateMutability": "view",
      "type": "function"
    },
    {
      "inputs": [
        {
          "internalType": "uint256",
          "name": "tokenId",
          "type": "uint256"
        }
      ],
      "name": "tokenURI",
      "outputs": [
        {
          "internalType": "string",
          "name": "",
          "type": "string"
        }
      ],
      "stateMutability": "view",
      "type": "function"
    },
    {
      "inputs": [],
      "name": "totalSupply",
      "outputs": [
        {
          "internalType": "uint256",
          "name": "",
          "type": "uint256"
        }
      ],
      "stateMutability": "view",
      "type": "function"
    },
    {
      "inputs": [
        {
          "internalType": "address",
          "name": "from",
          "type": "address"
        },
        {
          "internalType": "address",
          "name": "to",
          "type": "address"
        },
        {
          "internalType": "uint256",
          "name": "tokenId",
          "type": "uint256"
        }
      ],
      "name": "transferFrom",
      "outputs": [],
      "stateMutability": "nonpayable",
      "type": "function"
    },
    {
      "inputs": [
        {
          "internalType": "address",
          "name": "newOwner",
          "type": "address"
        }
      ],
      "name": "transferOwnership",
      "outputs": [],
      "stateMutability": "nonpayable",
      "type": "function"
    },
    {
      "inputs": [
        {
          "internalType": "uint256",
          "name": "tokenId",
          "type": "uint256"
        }
      ],
      "name": "useTicket",
      "outputs": [],
      "stateMutability": "nonpayable",
      "type": "function"
    },
    {
      "inputs": [
        {
          "internalType": "uint256",
          "name": "tokenId",
          "type": "uint256"
        },
        {
          "internalType": "address",
          "name": "owner",
          "type": "address"
        }
      ],
      "name": "verifyTicket",
      "outputs": [
        {
          "internalType": "bool",
          "name": "",
          "type": "bool"
        }
      ],
      "stateMutability": "view",
      "type": "function"
    }
  ],
  "bytecode": "0x60806040523480156200001157600080fd5b50336040518060400160405280600b81526020017f4576656e745469636b65740000000000000000000000000000000000000000008152506040518060400160405280600481526020017f4554495800000000000000000000000000000000000000000000000000000000815250816000908162000090919062000472565b508060019081620000a2919062000472565b505050600073ffffffffffffffffffffffffffffffffffffffff168173ffffffffffffffffffffffffffffffffffffffff16036200011a5760006040517f1e4fbdf70000000000000000000000000000000000000000000000000000000081526004016200011191906200059e565b60405180910390fd5b6200012b816200013260201b60201c565b50620005bb565b6000600a60009054906101000a900473ffffffffffffffffffffffffffffffffffffffff16905081600a60006101000a81548173ffffffffffffffffffffffffffffffffffffffff021916908373ffffffffffffffffffffffffffffffffffffffff1602179055508173ffffffffffffffffffffffffffffffffffffffff168173ffffffffffffffffffffffffffffffffffffffff167f8be0079c531659141344cd1fd0a4f28419497f9722a3daafe3b4186f6b6457e060405160405180910390a35050565b600081519050919050565b7f4e487b7100000000000000000000000000000000000000000000000000000000600052604160045260246000fd5b7f4e487b7100000000000000000000000000000000000000000000000000000000600052602260045260246000fd5b600060028204905060018216806200027a57607f821691505b60208210810362000290576200028f62000232565b5b50919050565b60008190508160005260206000209050919050565b60006020601f8301049050919050565b600082821b905092915050565b600060088302620002fa7fffffffffffffffffffffffffffffffffffffffffffffffffffffffffffffffff82620002bb565b620003068683620002bb565b95508019841693508086168417925050509392505050565b6000819050919050565b6000819050919050565b6000620003536200034d62000347846200031e565b62000328565b6200031e565b9050919050565b6000819050919050565b6200036f8362000332565b620003876200037e826200035a565b848454620002c8565b825550505050565b600090565b6200039e6200038f565b620003ab81848462000364565b505050565b5b81811015620003d357620003c760008262000394565b600181019050620003b1565b5050565b601f8211156200042257620003ec8162000296565b620003f784620002ab565b8101602085101562000407578190505b6200041f6200041685620002ab565b830182620003b0565b50505b505050565b600082821c905092915050565b6000620004476000198460080262000427565b1980831691505092915050565b600062000462838362000434565b9150826002028217905092915050565b6200047d82620001f8565b67ffffffffffffffff81111562000499576200049862000203565b5b620004a5825462000261565b620004b2828285620003d7565b600060209050601f831160018114620004ea5760008415620004d5578287015190505b620004e1858262000454565b86555062000551565b601f198416620004fa8662000296565b60005b828110156200052457848901518255600182019150602085019450602081019050620004fd565b8683101562000544578489015162000540601f89168262000434565b8355505b6001600288020188555050505b505050505050565b600073ffffffffffffffffffffffffffffffffffffffff82169050919050565b6000620005868262000559565b9050919050565b620005988162000579565b82525050565b6000602082019050620005b560008301846200058d565b92915050565b614b1380620005cb6000396000f3fe6080604052600436106101cd5760003560e01c80636352211e116100f7578063a22cb46511610095578063ca261ce111610064578063ca261ce1146106e3578063e985e9c514610720578063f2fde38b1461075d578063f5851a8d14610786576101cd565b8063a22cb46514610617578063b88d4fde14610640578063c2acd5e214610669578063c87b56dd146106a6576101cd565b8063715018a6116100d1578063715018a6146105815780638da5cb5b1461059857806395d89b41146105c357806399822054146105ee576101cd565b80636352211e146104de5780636a0cd1f51461051b57806370a0823114610544576101cd565b8063256d52f61161016f57806342842e0e1161013e57806342842e0e1461040e5780634b561753146104375780634f6ccce71461046057806350b447121461049d576101cd565b8063256d52f61461033b578063266064481461036b5780632f745c591461039457806334595cb5146103d1576101cd565b8063095ea7b3116101ab578063095ea7b3146102775780630b791430146102a057806318160ddd146102e757806323b872dd14610312576101cd565b806301ffc9a7146101d257806306fdde031461020f578063081812fc1461023a575b600080fd5b3480156101de57600080fd5b506101f960048036038101906101f49190613477565b6107c3565b60405161020691906134bf565b60405180910390f35b34801561021b57600080fd5b5061022461083d565b604051610231919061356a565b60405180910390f35b34801561024657600080fd5b50610261600480360381019061025c91906135c2565b6108cf565b60405161026e9190613630565b60405180910390f35b34801561028357600080fd5b5061029e60048036038101906102999190613677565b6108eb565b005b3480156102ac57600080fd5b506102c760048036038101906102c291906135c2565b610901565b6040516102de9b9a999897969594939291906136c6565b60405180910390f35b3480156102f357600080fd5b506102fc610aa5565b604051610309919061377f565b60405180910390f35b34801561031e57600080fd5b506103396004803603810190610334919061379a565b610ab2565b005b610355600480360381019061035091906135c2565b610bb4565b604051610362919061377f565b60405180910390f35b34801561037757600080fd5b50610392600480360381019061038d91906135c2565b610f0e565b005b3480156103a057600080fd5b506103bb60048036038101906103b69190613677565b611087565b6040516103c8919061377f565b60405180910390f35b3480156103dd57600080fd5b506103f860048036038101906103f3919061394e565b611130565b604051610405919061377f565b60405180910390f35b34801561041a57600080fd5b506104356004803603810190610430919061379a565b611441565b005b34801561044357600080fd5b5061045e60048036038101906104599190613a28565b611461565b005b34801561046c57600080fd5b50610487600480360381019061048291906135c2565b611619565b604051610494919061377f565b60405180910390f35b3480156104a957600080fd5b506104c460048036038101906104bf91906135c2565b61168f565b6040516104d5959493929190613a68565b60405180910390f35b3480156104ea57600080fd5b50610505600480360381019061050091906135c2565b6116d2565b6040516105129190613630565b60405180910390f35b34801561052757600080fd5b50610542600480360381019061053d9190613a28565b6116e4565b005b34801561055057600080fd5b5061056b60048036038101906105669190613abb565b6118d1565b604051610578919061377f565b60405180910390f35b34801561058d57600080fd5b5061059661198b565b005b3480156105a457600080fd5b506105ad61199f565b6040516105ba9190613630565b60405180910390f35b3480156105cf57600080fd5b506105d86119c9565b6040516105e5919061356a565b60405180910390f35b3480156105fa57600080fd5b50610615600480360381019061061091906135c2565b611a5b565b005b34801561062357600080fd5b5061063e60048036038101906106399190613ae8565b611baf565b005b34801561064c57600080fd5b5061066760048036038101906106629190613bc9565b611bc5565b005b34801561067557600080fd5b50610690600480360381019061068b9190613a28565b611bea565b60405161069d91906134bf565b60405180910390f35b3480156106b257600080fd5b506106cd60048036038101906106c891906135c2565b611c19565b6040516106da919061356a565b60405180910390f35b3480156106ef57600080fd5b5061070a600480360381019061070591906135c2565b611c82565b6040516107179190613d0a565b60405180910390f35b34801561072c57600080fd5b5061074760048036038101906107429190613d2c565b611ced565b60405161075491906134bf565b60405180910390f35b34801561076957600080fd5b50610784600480360381019061077f9190613abb565b611d81565b005b34801561079257600080fd5b506107ad60048036038101906107a89190613a28565b611e07565b6040516107ba91906134bf565b60405180910390f35b60007f780e9d63000000000000000000000000000000000000000000000000000000007bffffffffffffffffffffffffffffffffffffffffffffffffffffffff1916827bffffffffffffffffffffffffffffffffffffffffffffffffffffffff19161480610836575061083582611efb565b5b9050919050565b60606000805461084c90613d9b565b80601f016020809104026020016040519081016040528092919081815260200182805461087890613d9b565b80156108c55780601f1061089a576101008083540402835291602001916108c5565b820191906000526020600020905b8154815290600101906020018083116108a857829003601f168201915b5050505050905090565b60006108da82611fdd565b506108e482612065565b9050919050565b6108fd82826108f86120a2565b6120aa565b5050565b600d60205280600052604060002060009150905080600001549080600101805461092a90613d9b565b80601f016020809104026020016040519081016040528092919081815260200182805461095690613d9b565b80156109a35780601f10610978576101008083540402835291602001916109a3565b820191906000526020600020905b81548152906001019060200180831161098657829003601f168201915b5050505050908060020180546109b890613d9b565b80601f01602080910402602001604051908101604052809291908181526020018280546109e490613d9b565b8015610a315780601f10610a0657610100808354040283529160200191610a31565b820191906000526020600020905b815481529060010190602001808311610a1457829003601f168201915b5050505050908060030154908060040154908060050154908060060154908060070160009054906101000a900460ff16908060070160019054906101000a900473ffffffffffffffffffffffffffffffffffffffff16908060080154908060090160009054906101000a900460ff1690508b565b6000600880549050905090565b600073ffffffffffffffffffffffffffffffffffffffff168273ffffffffffffffffffffffffffffffffffffffff1603610b245760006040517f64a0ae92000000000000000000000000000000000000000000000000000000008152600401610b1b9190613630565b60405180910390fd5b6000610b388383610b336120a2565b6120bc565b90508373ffffffffffffffffffffffffffffffffffffffff168173ffffffffffffffffffffffffffffffffffffffff1614610bae578382826040517f64283d7b000000000000000000000000000000000000000000000000000000008152600401610ba593929190613dcc565b60405180910390fd5b50505050565b600080600d600084815260200190815260200160002090508060070160009054906101000a900460ff16610c1d576040517f08c379a0000000000000000000000000000000000000000000000000000000008152600401610c1490613e4f565b60405180910390fd5b80600301544210610c63576040517f08c379a0000000000000000000000000000000000000000000000000000000008152600401610c5a90613ebb565b60405180910390fd5b8060050154816006015410610cad576040517f08c379a0000000000000000000000000000000000000000000000000000000008152600401610ca490613f27565b60405180910390fd5b8060040154341015610cf4576040517f08c379a0000000000000000000000000000000000000000000000000000000008152600401610ceb90613f93565b60405180910390fd5b6000600b549050600b6000815480929190610d0e90613fe2565b9190505550610d1d3382612232565b6040518060a0016040528082815260200185815260200160001515815260200134815260200142815250600e6000838152602001908152602001600020600082015181600001556020820151816001015560408201518160020160006101000a81548160ff0219169083151502179055506060820151816003015560808201518160040155905050600f6000858152602001908152602001600020819080600181540180825580915050600190039060005260206000200160009091909190915055816006016000815480929190610df490613fe2565b91905055508160040154341115610e5c573373ffffffffffffffffffffffffffffffffffffffff166108fc836004015434610e2f919061402a565b9081150290604051600060405180830381858888f19350505050158015610e5a573d6000803e3d6000fd5b505b8160070160019054906101000a900473ffffffffffffffffffffffffffffffffffffffff1673ffffffffffffffffffffffffffffffffffffffff166108fc83600401549081150290604051600060405180830381858888f19350505050158015610eca573d6000803e3d6000fd5b5083817f085ec0eff4bf526b0dd054adffcd8bd8da42126a1133ce302042973f32029fb033604051610efc9190613630565b60405180910390a38092505050919050565b6000600e600083815260200190815260200160002090508060020160009054906101000a900460ff1615610f77576040517f08c379a0000000000000000000000000000000000000000000000000000000008152600401610f6e906140aa565b60405180910390fd5b6000600d6000836001015481526020019081526020016000209050601060008360010154815260200190815260200160002060003373ffffffffffffffffffffffffffffffffffffffff1673ffffffffffffffffffffffffffffffffffffffff16815260200190815260200160002060009054906101000a900460ff16611033576040517f08c379a000000000000000000000000000000000000000000000000000000000815260040161102a90614116565b60405180910390fd5b60018260020160006101000a81548160ff0219169083151502179055508160010154837fad0a02848182e7d3a9bb0ae2cc919bdef92f9da6b0a45ced3656cf5443212ede60405160405180910390a3505050565b6000611092836118d1565b82106110d75782826040517fa57d13dc0000000000000000000000000000000000000000000000000000000081526004016110ce929190614136565b60405180910390fd5b600660008473ffffffffffffffffffffffffffffffffffffffff1673ffffffffffffffffffffffffffffffffffffffff168152602001908152602001600020600083815260200190815260200160002054905092915050565b6000428611611174576040517f08c379a000000000000000000000000000000000000000000000000000000000815260040161116b906141ab565b60405180910390fd5b600084116111b7576040517f08c379a00000000000000000000000000000000000000000000000000000000081526004016111ae9061423d565b60405180910390fd5b848310156111fa576040517f08c379a00000000000000000000000000000000000000000000000000000000081526004016111f1906142cf565b60405180910390fd5b6000600c549050600c600081548092919061121490613fe2565b91905055506040518061016001604052808281526020018a8152602001898152602001888152602001878152602001868152602001600081526020016001151581526020013373ffffffffffffffffffffffffffffffffffffffff168152602001858152602001841515815250600d60008381526020019081526020016000206000820151816000015560208201518160010190816112b3919061449b565b5060408201518160020190816112c9919061449b565b50606082015181600301556080820151816004015560a0820151816005015560c0820151816006015560e08201518160070160006101000a81548160ff0219169083151502179055506101008201518160070160016101000a81548173ffffffffffffffffffffffffffffffffffffffff021916908373ffffffffffffffffffffffffffffffffffffffff16021790555061012082015181600801556101408201518160090160006101000a81548160ff02191690831515021790555090505060016010600083815260200190815260200160002060003373ffffffffffffffffffffffffffffffffffffffff1673ffffffffffffffffffffffffffffffffffffffff16815260200190815260200160002060006101000a81548160ff021916908315150217905550807fca468f9dfa5e8e69f7a91c44f5cba1020284731b0d80eeddfa11d8db501f246b8a8989893360405161142a95949392919061456d565b60405180910390a280915050979650505050505050565b61145c83838360405180602001604052806000815250611bc5565b505050565b3373ffffffffffffffffffffffffffffffffffffffff16600d600084815260200190815260200160002060070160019054906101000a900473ffffffffffffffffffffffffffffffffffffffff1673ffffffffffffffffffffffffffffffffffffffff1614611505576040517f08c379a00000000000000000000000000000000000000000000000000000000081526004016114fc90614639565b60405180910390fd5b600073ffffffffffffffffffffffffffffffffffffffff168173ffffffffffffffffffffffffffffffffffffffff1603611574576040517f08c379a000000000000000000000000000000000000000000000000000000000815260040161156b906146a5565b60405180910390fd5b60016010600084815260200190815260200160002060008373ffffffffffffffffffffffffffffffffffffffff1673ffffffffffffffffffffffffffffffffffffffff16815260200190815260200160002060006101000a81548160ff021916908315150217905550817f7429a06e9412e469f0d64f9d222640b0af359f556b709e2913588c227851b88d8260405161160d9190613630565b60405180910390a25050565b6000611623610aa5565b8210611669576000826040517fa57d13dc000000000000000000000000000000000000000000000000000000008152600401611660929190614136565b60405180910390fd5b6008828154811061167d5761167c6146c5565b5b90600052602060002001549050919050565b600e6020528060005260406000206000915090508060000154908060010154908060020160009054906101000a900460ff16908060030154908060040154905085565b60006116dd82611fdd565b9050919050565b3373ffffffffffffffffffffffffffffffffffffffff16600d600084815260200190815260200160002060070160019054906101000a900473ffffffffffffffffffffffffffffffffffffffff1673ffffffffffffffffffffffffffffffffffffffff1614611788576040517f08c379a000000000000000000000000000000000000000000000000000000000815260040161177f90614766565b60405180910390fd5b600d600083815260200190815260200160002060070160019054906101000a900473ffffffffffffffffffffffffffffffffffffffff1673ffffffffffffffffffffffffffffffffffffffff168173ffffffffffffffffffffffffffffffffffffffff160361182c576040517f08c379a0000000000000000000000000000000000000000000000000000000008152600401611823906147f8565b60405180910390fd5b60006010600084815260200190815260200160002060008373ffffffffffffffffffffffffffffffffffffffff1673ffffffffffffffffffffffffffffffffffffffff16815260200190815260200160002060006101000a81548160ff021916908315150217905550817f7126bef88d1149ccdff9681ed5aecd3ba5ae70c96517551de250af09cebd1a0b826040516118c59190613630565b60405180910390a25050565b60008073ffffffffffffffffffffffffffffffffffffffff168273ffffffffffffffffffffffffffffffffffffffff16036119445760006040517f89c62b6400000000000000000000000000000000000000000000000000000000815260040161193b9190613630565b60405180910390fd5b600360008373ffffffffffffffffffffffffffffffffffffffff1673ffffffffffffffffffffffffffffffffffffffff168152602001908152602001600020549050919050565b611993612250565b61199d60006122d7565b565b6000600a60009054906101000a900473ffffffffffffffffffffffffffffffffffffffff16905090565b6060600180546119d890613d9b565b80601f0160208091040260200160405190810160405280929190818152602001828054611a0490613d9b565b8015611a515780601f10611a2657610100808354040283529160200191611a51565b820191906000526020600020905b815481529060010190602001808311611a3457829003601f168201915b5050505050905090565b3373ffffffffffffffffffffffffffffffffffffffff16600d600083815260200190815260200160002060070160019054906101000a900473ffffffffffffffffffffffffffffffffffffffff1673ffffffffffffffffffffffffffffffffffffffff1614611aff576040517f08c379a0000000000000000000000000000000000000000000000000000000008152600401611af69061488a565b60405180910390fd5b600d600082815260200190815260200160002060090160009054906101000a900460ff1615600d600083815260200190815260200160002060090160006101000a81548160ff021916908315150217905550807f61b0a81cd9d78898b510b4f6c836bbb638d1e423138e57f47f5e074aa5d7bedb600d600084815260200190815260200160002060090160009054906101000a900460ff16604051611ba491906134bf565b60405180910390a250565b611bc1611bba6120a2565b838361239d565b5050565b611bd0848484610ab2565b611be4611bdb6120a2565b8585858561250c565b50505050565b60106020528160005260406000206020528060005260406000206000915091509054906101000a900460ff1681565b6060611c2482611fdd565b506000611c2f6126bd565b90506000815111611c4f5760405180602001604052806000815250611c7a565b80611c59846126d4565b604051602001611c6a9291906148e6565b6040516020818303038152906040525b915050919050565b6060600f6000838152602001908152602001600020805480602002602001604051908101604052809291908181526020018280548015611ce157602002820191906000526020600020905b815481526020019060010190808311611ccd575b50505050509050919050565b6000600560008473ffffffffffffffffffffffffffffffffffffffff1673ffffffffffffffffffffffffffffffffffffffff16815260200190815260200160002060008373ffffffffffffffffffffffffffffffffffffffff1673ffffffffffffffffffffffffffffffffffffffff16815260200190815260200160002060009054906101000a900460ff16905092915050565b611d89612250565b600073ffffffffffffffffffffffffffffffffffffffff168173ffffffffffffffffffffffffffffffffffffffff1603611dfb5760006040517f1e4fbdf7000000000000000000000000000000000000000000000000000000008152600401611df29190613630565b60405180910390fd5b611e04816122d7565b50565b6000611e12836127a2565b611e1f5760009050611ef5565b8173ffffffffffffffffffffffffffffffffffffffff16611e3f846127e3565b73ffffffffffffffffffffffffffffffffffffffff1614611e635760009050611ef5565b6000600e600085815260200190815260200160002090508060020160009054906101000a900460ff1615611e9b576000915050611ef5565b6000600d60008360010154815260200190815260200160002090508060030154421115611ecd57600092505050611ef5565b8060070160009054906101000a900460ff16611eee57600092505050611ef5565b6001925050505b92915050565b60007f80ac58cd000000000000000000000000000000000000000000000000000000007bffffffffffffffffffffffffffffffffffffffffffffffffffffffff1916827bffffffffffffffffffffffffffffffffffffffffffffffffffffffff19161480611fc657507f5b5e139f000000000000000000000000000000000000000000000000000000007bffffffffffffffffffffffffffffffffffffffffffffffffffffffff1916827bffffffffffffffffffffffffffffffffffffffffffffffffffffffff1916145b80611fd65750611fd582612820565b5b9050919050565b600080611fe9836127e3565b9050600073ffffffffffffffffffffffffffffffffffffffff168173ffffffffffffffffffffffffffffffffffffffff160361205c57826040517f7e273289000000000000000000000000000000000000000000000000000000008152600401612053919061377f565b60405180910390fd5b80915050919050565b60006004600083815260200190815260200160002060009054906101000a900473ffffffffffffffffffffffffffffffffffffffff169050919050565b600033905090565b6120b7838383600161288a565b505050565b6000806120c8846127e3565b9050600073ffffffffffffffffffffffffffffffffffffffff168173ffffffffffffffffffffffffffffffffffffffff161461221d576000600e600086815260200190815260200160002090506000600d60008360010154815260200190815260200160002090508060090160009054906101000a900460ff1615612182576040517f08c379a00000000000000000000000000000000000000000000000000000000081526004016121799061497c565b60405180910390fd5b806003015442106121c8576040517f08c379a00000000000000000000000000000000000000000000000000000000081526004016121bf90613ebb565b60405180910390fd5b8160020160009054906101000a900460ff161561221a576040517f08c379a0000000000000000000000000000000000000000000000000000000008152600401612211906140aa565b60405180910390fd5b50505b612228858585612a4f565b9150509392505050565b61224c828260405180602001604052806000815250612b6c565b5050565b6122586120a2565b73ffffffffffffffffffffffffffffffffffffffff1661227661199f565b73ffffffffffffffffffffffffffffffffffffffff16146122d5576122996120a2565b6040517f118cdaa70000000000000000000000000000000000000000000000000000000081526004016122cc9190613630565b60405180910390fd5b565b6000600a60009054906101000a900473ffffffffffffffffffffffffffffffffffffffff16905081600a60006101000a81548173ffffffffffffffffffffffffffffffffffffffff021916908373ffffffffffffffffffffffffffffffffffffffff1602179055508173ffffffffffffffffffffffffffffffffffffffff168173ffffffffffffffffffffffffffffffffffffffff167f8be0079c531659141344cd1fd0a4f28419497f9722a3daafe3b4186f6b6457e060405160405180910390a35050565b600073ffffffffffffffffffffffffffffffffffffffff168273ffffffffffffffffffffffffffffffffffffffff160361240e57816040517f5b08ba180000000000000000000000000000000000000000000000000000000081526004016124059190613630565b60405180910390fd5b80600560008573ffffffffffffffffffffffffffffffffffffffff1673ffffffffffffffffffffffffffffffffffffffff16815260200190815260200160002060008473ffffffffffffffffffffffffffffffffffffffff1673ffffffffffffffffffffffffffffffffffffffff16815260200190815260200160002060006101000a81548160ff0219169083151502179055508173ffffffffffffffffffffffffffffffffffffffff168373ffffffffffffffffffffffffffffffffffffffff167f17307eab39ab6107e8899845ad3d59bd9653f200f220920489ca2b5937696c31836040516124ff91906134bf565b60405180910390a3505050565b60008373ffffffffffffffffffffffffffffffffffffffff163b11156126b6578273ffffffffffffffffffffffffffffffffffffffff1663150b7a02868685856040518563ffffffff1660e01b815260040161256b94939291906149f1565b6020604051808303816000875af19250505080156125a757506040513d601f19601f820116820180604052508101906125a49190614a52565b60015b61262b573d80600081146125d7576040519150601f19603f3d011682016040523d82523d6000602084013e6125dc565b606091505b50600081510361262357836040517f64a0ae9200000000000000000000000000000000000000000000000000000000815260040161261a9190613630565b60405180910390fd5b805181602001fd5b63150b7a0260e01b7bffffffffffffffffffffffffffffffffffffffffffffffffffffffff1916817bffffffffffffffffffffffffffffffffffffffffffffffffffffffff1916146126b457836040517f64a0ae920000000000000000000000000000000000000000000000000000000081526004016126ab9190613630565b60405180910390fd5b505b5050505050565b606060405180602001604052806000815250905090565b6060600060016126e384612b90565b01905060008167ffffffffffffffff811115612702576127016137f7565b5b6040519080825280601f01601f1916602001820160405280156127345781602001600182028036833780820191505090505b509050600082602001820190505b600115612797578080600190039150507f3031323334353637383961626364656600000000000000000000000000000000600a86061a8153600a858161278b5761278a614a7f565b5b04945060008503612742575b819350505050919050565b60008073ffffffffffffffffffffffffffffffffffffffff166127c4836127e3565b73ffffffffffffffffffffffffffffffffffffffff1614159050919050565b60006002600083815260200190815260200160002060009054906101000a900473ffffffffffffffffffffffffffffffffffffffff169050919050565b60007f01ffc9a7000000000000000000000000000000000000000000000000000000007bffffffffffffffffffffffffffffffffffffffffffffffffffffffff1916827bffffffffffffffffffffffffffffffffffffffffffffffffffffffff1916149050919050565b80806128c35750600073ffffffffffffffffffffffffffffffffffffffff168273ffffffffffffffffffffffffffffffffffffffff1614155b156129f75760006128d384611fdd565b9050600073ffffffffffffffffffffffffffffffffffffffff168373ffffffffffffffffffffffffffffffffffffffff161415801561293e57508273ffffffffffffffffffffffffffffffffffffffff168173ffffffffffffffffffffffffffffffffffffffff1614155b8015612951575061294f8184611ced565b155b1561299357826040517fa9fbf51f00000000000000000000000000000000000000000000000000000000815260040161298a9190613630565b60405180910390fd5b81156129f557838573ffffffffffffffffffffffffffffffffffffffff168273ffffffffffffffffffffffffffffffffffffffff167f8c5be1e5ebec7d5bd14f71427d1e84f3dd0314c0f7b2291e5b200ac8c7c3b92560405160405180910390a45b505b836004600085815260200190815260200160002060006101000a81548173ffffffffffffffffffffffffffffffffffffffff021916908373ffffffffffffffffffffffffffffffffffffffff16021790555050505050565b600080612a5d858585612ce3565b9050600073ffffffffffffffffffffffffffffffffffffffff168173ffffffffffffffffffffffffffffffffffffffff1603612aa157612a9c84612efd565b612ae0565b8473ffffffffffffffffffffffffffffffffffffffff168173ffffffffffffffffffffffffffffffffffffffff1614612adf57612ade8185612f46565b5b5b600073ffffffffffffffffffffffffffffffffffffffff168573ffffffffffffffffffffffffffffffffffffffff1603612b2257612b1d84613031565b612b61565b8473ffffffffffffffffffffffffffffffffffffffff168173ffffffffffffffffffffffffffffffffffffffff1614612b6057612b5f8585613102565b5b5b809150509392505050565b612b76838361318d565b612b8b612b816120a2565b600085858561250c565b505050565b600080600090507a184f03e93ff9f4daa797ed6e38ed64bf6a1f0100000000000000008310612bee577a184f03e93ff9f4daa797ed6e38ed64bf6a1f0100000000000000008381612be457612be3614a7f565b5b0492506040810190505b6d04ee2d6d415b85acef81000000008310612c2b576d04ee2d6d415b85acef81000000008381612c2157612c20614a7f565b5b0492506020810190505b662386f26fc100008310612c5a57662386f26fc100008381612c5057612c4f614a7f565b5b0492506010810190505b6305f5e1008310612c83576305f5e1008381612c7957612c78614a7f565b5b0492506008810190505b6127108310612ca8576127108381612c9e57612c9d614a7f565b5b0492506004810190505b60648310612ccb5760648381612cc157612cc0614a7f565b5b0492506002810190505b600a8310612cda576001810190505b80915050919050565b600080612cef846127e3565b9050600073ffffffffffffffffffffffffffffffffffffffff168373ffffffffffffffffffffffffffffffffffffffff1614612d3157612d30818486613286565b5b600073ffffffffffffffffffffffffffffffffffffffff168173ffffffffffffffffffffffffffffffffffffffff1614612dc257612d7360008560008061288a565b6001600360008373ffffffffffffffffffffffffffffffffffffffff1673ffffffffffffffffffffffffffffffffffffffff168152602001908152602001600020600082825403925050819055505b600073ffffffffffffffffffffffffffffffffffffffff168573ffffffffffffffffffffffffffffffffffffffff1614612e45576001600360008773ffffffffffffffffffffffffffffffffffffffff1673ffffffffffffffffffffffffffffffffffffffff168152602001908152602001600020600082825401925050819055505b846002600086815260200190815260200160002060006101000a81548173ffffffffffffffffffffffffffffffffffffffff021916908373ffffffffffffffffffffffffffffffffffffffff160217905550838573ffffffffffffffffffffffffffffffffffffffff168273ffffffffffffffffffffffffffffffffffffffff167fddf252ad1be2c89b69c2b068fc378daa952ba7f163c4a11628f55a4df523b3ef60405160405180910390a4809150509392505050565b6008805490506009600083815260200190815260200160002081905550600881908060018154018082558091505060019003906000526020600020016000909190919091505550565b6000612f51836118d1565b90506000600760008481526020019081526020016000205490506000600660008673ffffffffffffffffffffffffffffffffffffffff1673ffffffffffffffffffffffffffffffffffffffff1681526020019081526020016000209050828214612ffd5760008160008581526020019081526020016000205490508082600085815260200190815260200160002081905550826007600083815260200190815260200160002081905550505b6007600085815260200190815260200160002060009055806000848152602001908152602001600020600090555050505050565b60006001600880549050613045919061402a565b9050600060096000848152602001908152602001600020549050600060088381548110613075576130746146c5565b5b906000526020600020015490508060088381548110613097576130966146c5565b5b9060005260206000200181905550816009600083815260200190815260200160002081905550600960008581526020019081526020016000206000905560088054806130e6576130e5614aae565b5b6001900381819060005260206000200160009055905550505050565b6000600161310f846118d1565b613119919061402a565b905081600660008573ffffffffffffffffffffffffffffffffffffffff1673ffffffffffffffffffffffffffffffffffffffff168152602001908152602001600020600083815260200190815260200160002081905550806007600084815260200190815260200160002081905550505050565b600073ffffffffffffffffffffffffffffffffffffffff168273ffffffffffffffffffffffffffffffffffffffff16036131ff5760006040517f64a0ae920000000000000000000000000000000000000000000000000000000081526004016131f69190613630565b60405180910390fd5b600061320d838360006120bc565b9050600073ffffffffffffffffffffffffffffffffffffffff168173ffffffffffffffffffffffffffffffffffffffff16146132815760006040517f73c6ac6e0000000000000000000000000000000000000000000000000000000081526004016132789190613630565b60405180910390fd5b505050565b61329183838361334a565b61334557600073ffffffffffffffffffffffffffffffffffffffff168373ffffffffffffffffffffffffffffffffffffffff160361330657806040517f7e2732890000000000000000000000000000000000000000000000000000000081526004016132fd919061377f565b60405180910390fd5b81816040517f177e802f00000000000000000000000000000000000000000000000000000000815260040161333c929190614136565b60405180910390fd5b505050565b60008073ffffffffffffffffffffffffffffffffffffffff168373ffffffffffffffffffffffffffffffffffffffff161415801561340257508273ffffffffffffffffffffffffffffffffffffffff168473ffffffffffffffffffffffffffffffffffffffff1614806133c357506133c28484611ced565b5b8061340157508273ffffffffffffffffffffffffffffffffffffffff166133e983612065565b73ffffffffffffffffffffffffffffffffffffffff16145b5b90509392505050565b6000604051905090565b600080fd5b600080fd5b60007fffffffff0000000000000000000000000000000000000000000000000000000082169050919050565b6134548161341f565b811461345f57600080fd5b50565b6000813590506134718161344b565b92915050565b60006020828403121561348d5761348c613415565b5b600061349b84828501613462565b91505092915050565b60008115159050919050565b6134b9816134a4565b82525050565b60006020820190506134d460008301846134b0565b92915050565b600081519050919050565b600082825260208201905092915050565b60005b838110156135145780820151818401526020810190506134f9565b60008484015250505050565b6000601f19601f8301169050919050565b600061353c826134da565b61354681856134e5565b93506135568185602086016134f6565b61355f81613520565b840191505092915050565b600060208201905081810360008301526135848184613531565b905092915050565b6000819050919050565b61359f8161358c565b81146135aa57600080fd5b50565b6000813590506135bc81613596565b92915050565b6000602082840312156135d8576135d7613415565b5b60006135e6848285016135ad565b91505092915050565b600073ffffffffffffffffffffffffffffffffffffffff82169050919050565b600061361a826135ef565b9050919050565b61362a8161360f565b82525050565b60006020820190506136456000830184613621565b92915050565b6136548161360f565b811461365f57600080fd5b50565b6000813590506136718161364b565b92915050565b6000806040838503121561368e5761368d613415565b5b600061369c85828601613662565b92505060206136ad858286016135ad565b9150509250929050565b6136c08161358c565b82525050565b6000610160820190506136dc600083018e6136b7565b81810360208301526136ee818d613531565b90508181036040830152613702818c613531565b9050613711606083018b6136b7565b61371e608083018a6136b7565b61372b60a08301896136b7565b61373860c08301886136b7565b61374560e08301876134b0565b613753610100830186613621565b6137616101208301856136b7565b61376f6101408301846134b0565b9c9b505050505050505050505050565b600060208201905061379460008301846136b7565b92915050565b6000806000606084860312156137b3576137b2613415565b5b60006137c186828701613662565b93505060206137d286828701613662565b92505060406137e3868287016135ad565b9150509250925092565b600080fd5b600080fd5b7f4e487b7100000000000000000000000000000000000000000000000000000000600052604160045260246000fd5b61382f82613520565b810181811067ffffffffffffffff8211171561384e5761384d6137f7565b5b80604052505050565b600061386161340b565b905061386d8282613826565b919050565b600067ffffffffffffffff82111561388d5761388c6137f7565b5b61389682613520565b9050602081019050919050565b82818337600083830152505050565b60006138c56138c084613872565b613857565b9050828152602081018484840111156138e1576138e06137f2565b5b6138ec8482856138a3565b509392505050565b600082601f830112613909576139086137ed565b5b81356139198482602086016138b2565b91505092915050565b61392b816134a4565b811461393657600080fd5b50565b60008135905061394881613922565b92915050565b600080600080600080600060e0888a03121561396d5761396c613415565b5b600088013567ffffffffffffffff81111561398b5761398a61341a565b5b6139978a828b016138f4565b975050602088013567ffffffffffffffff8111156139b8576139b761341a565b5b6139c48a828b016138f4565b96505060406139d58a828b016135ad565b95505060606139e68a828b016135ad565b94505060806139f78a828b016135ad565b93505060a0613a088a828b016135ad565b92505060c0613a198a828b01613939565b91505092959891949750929550565b60008060408385031215613a3f57613a3e613415565b5b6000613a4d858286016135ad565b9250506020613a5e85828601613662565b9150509250929050565b600060a082019050613a7d60008301886136b7565b613a8a60208301876136b7565b613a9760408301866134b0565b613aa460608301856136b7565b613ab160808301846136b7565b9695505050505050565b600060208284031215613ad157613ad0613415565b5b6000613adf84828501613662565b91505092915050565b60008060408385031215613aff57613afe613415565b5b6000613b0d85828601613662565b9250506020613b1e85828601613939565b9150509250929050565b600067ffffffffffffffff821115613b4357613b426137f7565b5b613b4c82613520565b9050602081019050919050565b6000613b6c613b6784613b28565b613857565b905082815260208101848484011115613b8857613b876137f2565b5b613b938482856138a3565b509392505050565b600082601f830112613bb057613baf6137ed565b5b8135613bc0848260208601613b59565b91505092915050565b60008060008060808587031215613be357613be2613415565b5b6000613bf187828801613662565b9450506020613c0287828801613662565b9350506040613c13878288016135ad565b925050606085013567ffffffffffffffff811115613c3457613c3361341a565b5b613c4087828801613b9b565b91505092959194509250565b600081519050919050565b600082825260208201905092915050565b6000819050602082019050919050565b613c818161358c565b82525050565b6000613c938383613c78565b60208301905092915050565b6000602082019050919050565b6000613cb782613c4c565b613cc18185613c57565b9350613ccc83613c68565b8060005b83811015613cfd578151613ce48882613c87565b9750613cef83613c9f565b925050600181019050613cd0565b5085935050505092915050565b60006020820190508181036000830152613d248184613cac565b905092915050565b60008060408385031215613d4357613d42613415565b5b6000613d5185828601613662565b9250506020613d6285828601613662565b9150509250929050565b7f4e487b7100000000000000000000000000000000000000000000000000000000600052602260045260246000fd5b60006002820490506001821680613db357607f821691505b602082108103613dc657613dc5613d6c565b5b50919050565b6000606082019050613de16000830186613621565b613dee60208301856136b7565b613dfb6040830184613621565b949350505050565b7f4576656e74206973206e6f742061637469766500000000000000000000000000600082015250565b6000613e396013836134e5565b9150613e4482613e03565b602082019050919050565b60006020820190508181036000830152613e6881613e2c565b9050919050565b7f4576656e742068617320616c7265616479206f63637572726564000000000000600082015250565b6000613ea5601a836134e5565b9150613eb082613e6f565b602082019050919050565b60006020820190508181036000830152613ed481613e98565b9050919050565b7f4576656e7420697320736f6c64206f7574000000000000000000000000000000600082015250565b6000613f116011836134e5565b9150613f1c82613edb565b602082019050919050565b60006020820190508181036000830152613f4081613f04565b9050919050565b7f496e73756666696369656e74207061796d656e74000000000000000000000000600082015250565b6000613f7d6014836134e5565b9150613f8882613f47565b602082019050919050565b60006020820190508181036000830152613fac81613f70565b9050919050565b7f4e487b7100000000000000000000000000000000000000000000000000000000600052601160045260246000fd5b6000613fed8261358c565b91507fffffffffffffffffffffffffffffffffffffffffffffffffffffffffffffffff820361401f5761401e613fb3565b5b600182019050919050565b60006140358261358c565b91506140408361358c565b925082820390508181111561405857614057613fb3565b5b92915050565b7f5469636b65742068617320616c7265616479206265656e207573656400000000600082015250565b6000614094601c836134e5565b915061409f8261405e565b602082019050919050565b600060208201905081810360008301526140c381614087565b9050919050565b7f4e6f7420617574686f72697a65642061732076616c696461746f720000000000600082015250565b6000614100601b836134e5565b915061410b826140ca565b602082019050919050565b6000602082019050818103600083015261412f816140f3565b9050919050565b600060408201905061414b6000830185613621565b61415860208301846136b7565b9392505050565b7f4576656e742064617465206d75737420626520696e2074686520667574757265600082015250565b60006141956020836134e5565b91506141a08261415f565b602082019050919050565b600060208201905081810360008301526141c481614188565b9050919050565b7f4d6178696d756d207469636b657473206d75737420626520677265617465722060008201527f7468616e207a65726f0000000000000000000000000000000000000000000000602082015250565b60006142276029836134e5565b9150614232826141cb565b604082019050919050565b600060208201905081810360008301526142568161421a565b9050919050565b7f4d617820726573656c6c207072696365206d757374206265203e3d206f72696760008201527f696e616c20707269636500000000000000000000000000000000000000000000602082015250565b60006142b9602a836134e5565b91506142c48261425d565b604082019050919050565b600060208201905081810360008301526142e8816142ac565b9050919050565b60008190508160005260206000209050919050565b60006020601f8301049050919050565b600082821b905092915050565b6000600883026143517fffffffffffffffffffffffffffffffffffffffffffffffffffffffffffffffff82614314565b61435b8683614314565b95508019841693508086168417925050509392505050565b6000819050919050565b600061439861439361438e8461358c565b614373565b61358c565b9050919050565b6000819050919050565b6143b28361437d565b6143c66143be8261439f565b848454614321565b825550505050565b600090565b6143db6143ce565b6143e68184846143a9565b505050565b5b8181101561440a576143ff6000826143d3565b6001810190506143ec565b5050565b601f82111561444f57614420816142ef565b61442984614304565b81016020851015614438578190505b61444c61444485614304565b8301826143eb565b50505b505050565b600082821c905092915050565b600061447260001984600802614454565b1980831691505092915050565b600061448b8383614461565b9150826002028217905092915050565b6144a4826134da565b67ffffffffffffffff8111156144bd576144bc6137f7565b5b6144c78254613d9b565b6144d282828561440e565b600060209050601f83116001811461450557600084156144f3578287015190505b6144fd858261447f565b865550614565565b601f198416614513866142ef565b60005b8281101561453b57848901518255600182019150602085019450602081019050614516565b868310156145585784890151614554601f891682614461565b8355505b6001600288020188555050505b505050505050565b600060a08201905081810360008301526145878188613531565b905061459660208301876136b7565b6145a360408301866136b7565b6145b060608301856136b7565b6145bd6080830184613621565b9695505050505050565b7f4f6e6c79206576656e74206f7267616e697a65722063616e206164642076616c60008201527f696461746f727300000000000000000000000000000000000000000000000000602082015250565b60006146236027836134e5565b915061462e826145c7565b604082019050919050565b6000602082019050818103600083015261465281614616565b9050919050565b7f496e76616c69642076616c696461746f72206164647265737300000000000000600082015250565b600061468f6019836134e5565b915061469a82614659565b602082019050919050565b600060208201905081810360008301526146be81614682565b9050919050565b7f4e487b7100000000000000000000000000000000000000000000000000000000600052603260045260246000fd5b7f4f6e6c79206576656e74206f7267616e697a65722063616e2072656d6f76652060008201527f76616c696461746f727300000000000000000000000000000000000000000000602082015250565b6000614750602a836134e5565b915061475b826146f4565b604082019050919050565b6000602082019050818103600083015261477f81614743565b9050919050565b7f43616e6e6f742072656d6f7665206576656e74206f7267616e697a657220617360008201527f2076616c696461746f7200000000000000000000000000000000000000000000602082015250565b60006147e2602a836134e5565b91506147ed82614786565b604082019050919050565b60006020820190508181036000830152614811816147d5565b9050919050565b7f4f6e6c79206576656e74206f7267616e697a65722063616e20746f67676c652060008201527f7472616e73666572206c6f636b00000000000000000000000000000000000000602082015250565b6000614874602d836134e5565b915061487f82614818565b604082019050919050565b600060208201905081810360008301526148a381614867565b9050919050565b600081905092915050565b60006148c0826134da565b6148ca81856148aa565b93506148da8185602086016134f6565b80840191505092915050565b60006148f282856148b5565b91506148fe82846148b5565b91508190509392505050565b7f5472616e736665727320617265206c6f636b656420666f72207468697320657660008201527f656e740000000000000000000000000000000000000000000000000000000000602082015250565b60006149666023836134e5565b91506149718261490a565b604082019050919050565b6000602082019050818103600083015261499581614959565b9050919050565b600081519050919050565b600082825260208201905092915050565b60006149c38261499c565b6149cd81856149a7565b93506149dd8185602086016134f6565b6149e681613520565b840191505092915050565b6000608082019050614a066000830187613621565b614a136020830186613621565b614a2060408301856136b7565b8181036060830152614a3281846149b8565b905095945050505050565b600081519050614a4c8161344b565b92915050565b600060208284031215614a6857614a67613415565b5b6000614a7684828501614a3d565b91505092915050565b7f4e487b7100000000000000000000000000000000000000000000000000000000600052601260045260246000fd5b7f4e487b7100000000000000000000000000000000000000000000000000000000600052603160045260246000fdfea264697066735822122081ba4d4339c598e34afb209a8ed0cbb6dd24f9e311883d620b2dfb7fecad55b364736f6c63430008140033",
  "linkReferences": {},
  "deployedLinkReferences": {}
}